{
  "_format": "hh-sol-artifact-1",
  "contractName": "IndiNFTAuction",
  "sourceName": "contracts/Auction.sol",
  "abi": [
    {
      "inputs": [
        {
          "internalType": "address",
          "name": "registry",
          "type": "address"
        }
      ],
      "stateMutability": "nonpayable",
      "type": "constructor"
    },
    {
      "anonymous": false,
      "inputs": [
        {
          "indexed": true,
          "internalType": "uint256",
          "name": "auctionId",
          "type": "uint256"
        }
      ],
      "name": "AuctionCancelled",
      "type": "event"
    },
    {
      "anonymous": false,
      "inputs": [
        {
          "indexed": true,
          "internalType": "address",
          "name": "accountOf",
          "type": "address"
        },
        {
          "indexed": true,
          "internalType": "address",
          "name": "tokenAddress",
          "type": "address"
        },
        {
          "indexed": true,
          "internalType": "uint256",
          "name": "newBalance",
          "type": "uint256"
        }
      ],
      "name": "BalanceUpdated",
      "type": "event"
    },
    {
      "anonymous": false,
      "inputs": [
        {
          "indexed": false,
          "internalType": "uint256",
          "name": "auctionId",
          "type": "uint256"
        },
        {
          "indexed": false,
          "internalType": "uint256",
          "name": "amount",
          "type": "uint256"
        }
      ],
      "name": "BidPlaced",
      "type": "event"
    },
    {
      "anonymous": false,
      "inputs": [
        {
          "indexed": false,
          "internalType": "uint256",
          "name": "auctionId",
          "type": "uint256"
        },
        {
          "indexed": false,
          "internalType": "address",
          "name": "winner",
          "type": "address"
        },
        {
          "indexed": false,
          "internalType": "address",
          "name": "recipient",
          "type": "address"
        },
        {
          "indexed": false,
          "internalType": "uint256",
          "name": "amount",
          "type": "uint256"
        }
      ],
      "name": "ClaimNFT",
      "type": "event"
    },
    {
      "anonymous": false,
      "inputs": [
        {
          "indexed": true,
          "internalType": "uint256",
          "name": "auctionId",
          "type": "uint256"
        },
        {
          "components": [
            {
              "internalType": "uint256",
              "name": "id",
              "type": "uint256"
            },
            {
              "internalType": "address",
              "name": "owner",
              "type": "address"
            },
            {
              "internalType": "address",
              "name": "nftContract",
              "type": "address"
            },
            {
              "internalType": "uint256",
              "name": "nftId",
              "type": "uint256"
            },
            {
              "internalType": "uint256",
              "name": "startTime",
              "type": "uint256"
            },
            {
              "internalType": "uint256",
              "name": "endTime",
              "type": "uint256"
            },
            {
              "internalType": "uint256",
              "name": "reservePrice",
              "type": "uint256"
            },
            {
              "internalType": "address",
              "name": "currency",
              "type": "address"
            }
          ],
          "indexed": false,
          "internalType": "struct IAuction.Auction",
          "name": "newAuction",
          "type": "tuple"
        }
      ],
      "name": "NewAuction",
      "type": "event"
    },
    {
      "anonymous": false,
      "inputs": [
        {
          "indexed": true,
          "internalType": "address",
          "name": "previousOwner",
          "type": "address"
        },
        {
          "indexed": true,
          "internalType": "address",
          "name": "newOwner",
          "type": "address"
        }
      ],
      "name": "OwnershipTransferred",
      "type": "event"
    },
    {
      "inputs": [
        {
          "internalType": "uint256",
          "name": "auctionId",
          "type": "uint256"
        },
        {
          "internalType": "uint256",
          "name": "amountFromBalance",
          "type": "uint256"
        },
        {
          "internalType": "uint256",
          "name": "externalFunds",
          "type": "uint256"
        }
      ],
      "name": "bid",
      "outputs": [
        {
          "internalType": "bool",
          "name": "",
          "type": "bool"
        }
      ],
      "stateMutability": "payable",
      "type": "function"
    },
    {
      "inputs": [
        {
          "internalType": "uint256",
          "name": "auctionId",
          "type": "uint256"
        }
      ],
      "name": "cancelAuction",
      "outputs": [],
      "stateMutability": "nonpayable",
      "type": "function"
    },
    {
      "inputs": [
        {
          "internalType": "address",
          "name": "tokenContract",
          "type": "address"
        }
      ],
      "name": "claimFunds",
      "outputs": [],
      "stateMutability": "nonpayable",
      "type": "function"
    },
    {
      "inputs": [
        {
          "internalType": "uint256",
          "name": "auctionId",
          "type": "uint256"
        },
        {
          "internalType": "address",
          "name": "recipient",
          "type": "address"
        }
      ],
      "name": "claimNft",
      "outputs": [
        {
          "internalType": "bool",
          "name": "",
          "type": "bool"
        }
      ],
      "stateMutability": "nonpayable",
      "type": "function"
    },
    {
      "inputs": [
        {
          "internalType": "address",
          "name": "nftContract",
          "type": "address"
        },
        {
          "internalType": "uint256",
          "name": "id",
          "type": "uint256"
        },
        {
          "internalType": "uint256",
          "name": "startTime",
          "type": "uint256"
        },
        {
          "internalType": "uint256",
          "name": "endTime",
          "type": "uint256"
        },
        {
          "internalType": "uint256",
          "name": "reservePrice",
          "type": "uint256"
        },
        {
          "internalType": "address",
          "name": "currency",
          "type": "address"
        }
      ],
      "name": "createAuction",
      "outputs": [
        {
          "internalType": "uint256",
          "name": "",
          "type": "uint256"
        }
      ],
      "stateMutability": "nonpayable",
      "type": "function"
    },
    {
      "inputs": [
        {
          "internalType": "uint256",
          "name": "auctionId",
          "type": "uint256"
        }
      ],
      "name": "getAuctionDetails",
      "outputs": [
        {
          "components": [
            {
              "internalType": "uint256",
              "name": "id",
              "type": "uint256"
            },
            {
              "internalType": "address",
              "name": "owner",
              "type": "address"
            },
            {
              "internalType": "address",
              "name": "nftContract",
              "type": "address"
            },
            {
              "internalType": "uint256",
              "name": "nftId",
              "type": "uint256"
            },
            {
              "internalType": "uint256",
              "name": "startTime",
              "type": "uint256"
            },
            {
              "internalType": "uint256",
              "name": "endTime",
              "type": "uint256"
            },
            {
              "internalType": "uint256",
              "name": "reservePrice",
              "type": "uint256"
            },
            {
              "internalType": "address",
              "name": "currency",
              "type": "address"
            }
          ],
          "internalType": "struct IAuction.Auction",
          "name": "",
          "type": "tuple"
        }
      ],
      "stateMutability": "view",
      "type": "function"
    },
    {
      "inputs": [
        {
          "internalType": "uint256",
          "name": "auctionId",
          "type": "uint256"
        }
      ],
      "name": "getAuctionStatus",
      "outputs": [
        {
          "internalType": "string",
          "name": "",
          "type": "string"
        }
      ],
      "stateMutability": "view",
      "type": "function"
    },
    {
      "inputs": [
        {
          "internalType": "uint256",
          "name": "auctionId",
          "type": "uint256"
        },
        {
          "internalType": "address",
          "name": "bidder",
          "type": "address"
        }
      ],
      "name": "getBidDetails",
      "outputs": [
        {
          "components": [
            {
              "internalType": "uint256",
              "name": "auctionId",
              "type": "uint256"
            },
            {
              "internalType": "address",
              "name": "bidder",
              "type": "address"
            },
            {
              "internalType": "uint256",
              "name": "amount",
              "type": "uint256"
            },
            {
              "internalType": "uint256",
              "name": "timestamp",
              "type": "uint256"
            }
          ],
          "internalType": "struct IAuction.Bid",
          "name": "",
          "type": "tuple"
        }
      ],
      "stateMutability": "view",
      "type": "function"
    },
    {
      "inputs": [
        {
          "internalType": "address",
          "name": "account",
          "type": "address"
        },
        {
          "internalType": "address",
          "name": "token",
          "type": "address"
        }
      ],
      "name": "getClaimableBalance",
      "outputs": [
        {
          "internalType": "uint256",
          "name": "",
          "type": "uint256"
        }
      ],
      "stateMutability": "view",
      "type": "function"
    },
    {
      "inputs": [
        {
          "internalType": "uint256",
          "name": "auctionId",
          "type": "uint256"
        }
      ],
      "name": "getHighestBidder",
      "outputs": [
        {
          "internalType": "address",
          "name": "",
          "type": "address"
        }
      ],
      "stateMutability": "view",
      "type": "function"
    },
    {
      "inputs": [
        {
          "internalType": "address",
          "name": "operator",
          "type": "address"
        },
        {
          "internalType": "address",
          "name": "from",
          "type": "address"
        },
        {
          "internalType": "uint256",
          "name": "id",
          "type": "uint256"
        },
        {
          "internalType": "uint256",
          "name": "value",
          "type": "uint256"
        },
        {
          "internalType": "bytes",
          "name": "data",
          "type": "bytes"
        }
      ],
      "name": "onERC1155Received",
      "outputs": [
        {
          "internalType": "bytes4",
          "name": "",
          "type": "bytes4"
        }
      ],
      "stateMutability": "pure",
      "type": "function"
    },
    {
      "inputs": [],
      "name": "owner",
      "outputs": [
        {
          "internalType": "address",
          "name": "",
          "type": "address"
        }
      ],
      "stateMutability": "view",
      "type": "function"
    },
    {
      "inputs": [],
      "name": "renounceOwnership",
      "outputs": [],
      "stateMutability": "nonpayable",
      "type": "function"
    },
    {
      "inputs": [
        {
          "internalType": "uint256",
          "name": "auctionId",
          "type": "uint256"
        }
      ],
      "name": "resolveAuction",
      "outputs": [],
      "stateMutability": "nonpayable",
      "type": "function"
    },
    {
      "inputs": [
        {
          "internalType": "address",
          "name": "newOwner",
          "type": "address"
        }
      ],
      "name": "transferOwnership",
      "outputs": [],
      "stateMutability": "nonpayable",
      "type": "function"
    }
  ],
  "bytecode": "0x60806040523480156200001157600080fd5b5060405162006219380380620062198339818101604052810190620000379190620001dc565b620000576200004b620000a660201b60201c565b620000ae60201b60201c565b6001808190555080600360006101000a81548173ffffffffffffffffffffffffffffffffffffffff021916908373ffffffffffffffffffffffffffffffffffffffff160217905550506200020e565b600033905090565b60008060009054906101000a900473ffffffffffffffffffffffffffffffffffffffff169050816000806101000a81548173ffffffffffffffffffffffffffffffffffffffff021916908373ffffffffffffffffffffffffffffffffffffffff1602179055508173ffffffffffffffffffffffffffffffffffffffff168173ffffffffffffffffffffffffffffffffffffffff167f8be0079c531659141344cd1fd0a4f28419497f9722a3daafe3b4186f6b6457e060405160405180910390a35050565b600080fd5b600073ffffffffffffffffffffffffffffffffffffffff82169050919050565b6000620001a48262000177565b9050919050565b620001b68162000197565b8114620001c257600080fd5b50565b600081519050620001d681620001ab565b92915050565b600060208284031215620001f557620001f462000172565b5b60006200020584828501620001c5565b91505092915050565b615ffb806200021e6000396000f3fe6080604052600436106100e85760003560e01c806396b5a7551161008a578063e6effbe911610059578063e6effbe91461030b578063f20e5e3514610348578063f23a6e6114610385578063f2fde38b146103c2576100e8565b806396b5a7551461022b5780639fc89aed14610254578063ac8d590b14610291578063c750cb79146102ce576100e8565b8063693d0df2116100c6578063693d0df214610183578063715018a6146101ac5780637765c52c146101c35780638da5cb5b14610200576100e8565b8063199de1e2146100ed5780632ac9bf091461011657806330ff304314610146575b600080fd5b3480156100f957600080fd5b50610114600480360381019061010f91906145ad565b6103eb565b005b610130600480360381019061012b91906145da565b610800565b60405161013d9190614648565b60405180910390f35b34801561015257600080fd5b5061016d600480360381019061016891906146c1565b6115f3565b60405161017a9190614710565b60405180910390f35b34801561018f57600080fd5b506101aa60048036038101906101a5919061472b565b61167a565b005b3480156101b857600080fd5b506101c1611ac4565b005b3480156101cf57600080fd5b506101ea60048036038101906101e591906145ad565b611b4c565b6040516101f791906147f1565b60405180910390f35b34801561020c57600080fd5b50610215611e83565b6040516102229190614822565b60405180910390f35b34801561023757600080fd5b50610252600480360381019061024d91906145ad565b611eac565b005b34801561026057600080fd5b5061027b6004803603810190610276919061483d565b6123f5565b60405161028891906148f0565b60405180910390f35b34801561029d57600080fd5b506102b860048036038101906102b3919061483d565b6124d4565b6040516102c59190614648565b60405180910390f35b3480156102da57600080fd5b506102f560048036038101906102f091906145ad565b612cd7565b6040516103029190614822565b60405180910390f35b34801561031757600080fd5b50610332600480360381019061032d919061490b565b612d14565b60405161033f9190614710565b60405180910390f35b34801561035457600080fd5b5061036f600480360381019061036a91906145ad565b613450565b60405161037c9190614a3a565b60405180910390f35b34801561039157600080fd5b506103ac60048036038101906103a79190614b8b565b61360a565b6040516103b99190614c5d565b60405180910390f35b3480156103ce57600080fd5b506103e960048036038101906103e4919061472b565b61361f565b005b6103f3613717565b73ffffffffffffffffffffffffffffffffffffffff16610411611e83565b73ffffffffffffffffffffffffffffffffffffffff1614610467576040517f08c379a000000000000000000000000000000000000000000000000000000000815260040161045e90614cc4565b60405180910390fd5b6040518060400160405280600581526020017f454e444544000000000000000000000000000000000000000000000000000000815250805190602001206104ad82611b4c565b80519060200120146104f4576040517f08c379a00000000000000000000000000000000000000000000000000000000081526004016104eb90614d30565b60405180910390fd5b60006008600083815260200190815260200160002060006007600085815260200190815260200160002060009054906101000a900473ffffffffffffffffffffffffffffffffffffffff1673ffffffffffffffffffffffffffffffffffffffff1673ffffffffffffffffffffffffffffffffffffffff168152602001908152602001600020600201549050600081116105c2576040517f08c379a00000000000000000000000000000000000000000000000000000000081526004016105b990614d9c565b60405180910390fd5b60006004600084815260200190815260200160002060020160009054906101000a900473ffffffffffffffffffffffffffffffffffffffff16905061060883838361371f565b8073ffffffffffffffffffffffffffffffffffffffff1663f242432a306007600087815260200190815260200160002060009054906101000a900473ffffffffffffffffffffffffffffffffffffffff16600460008881526020019081526020016000206003015460016040518563ffffffff1660e01b81526004016106919493929190614e38565b600060405180830381600087803b1580156106ab57600080fd5b505af11580156106bf573d6000803e3d6000fd5b5050505060016006600085815260200190815260200160002060006101000a81548160ff0219169083151502179055507f5dfaf32218417fc162670c095b06ca483b2ae080a3a449c6d1c3b95b47485ae56004600085815260200190815260200160002060000154336007600087815260200190815260200160002060009054906101000a900473ffffffffffffffffffffffffffffffffffffffff16600860008881526020019081526020016000206000600760008a815260200190815260200160002060009054906101000a900473ffffffffffffffffffffffffffffffffffffffff1673ffffffffffffffffffffffffffffffffffffffff1673ffffffffffffffffffffffffffffffffffffffff168152602001908152602001600020600201546040516107f39493929190614e90565b60405180910390a1505050565b600060026001541415610848576040517f08c379a000000000000000000000000000000000000000000000000000000000815260040161083f90614f21565b60405180910390fd5b600260018190555060011515600360009054906101000a900473ffffffffffffffffffffffffffffffffffffffff1673ffffffffffffffffffffffffffffffffffffffff1663e055799d306040518263ffffffff1660e01b81526004016108af9190614822565b602060405180830381865afa1580156108cc573d6000803e3d6000fd5b505050506040513d601f19601f820116820180604052508101906108f09190614f6d565b151514610932576040517f08c379a000000000000000000000000000000000000000000000000000000000815260040161092990614fe6565b60405180910390fd5b6040518060400160405280600681526020017f41435449564500000000000000000000000000000000000000000000000000008152508051906020012061097885611b4c565b80519060200120146109bf576040517f08c379a00000000000000000000000000000000000000000000000000000000081526004016109b690615052565b60405180910390fd5b60006008600086815260200190815260200160002060003373ffffffffffffffffffffffffffffffffffffffff1673ffffffffffffffffffffffffffffffffffffffff168152602001908152602001600020600201548385610a2191906150a1565b610a2b91906150a1565b90506008600086815260200190815260200160002060006007600088815260200190815260200160002060009054906101000a900473ffffffffffffffffffffffffffffffffffffffff1673ffffffffffffffffffffffffffffffffffffffff1673ffffffffffffffffffffffffffffffffffffffff168152602001908152602001600020600201548111610af5576040517f08c379a0000000000000000000000000000000000000000000000000000000008152600401610aec90615143565b60405180910390fd5b6004600086815260200190815260200160002060060154811015610b4e576040517f08c379a0000000000000000000000000000000000000000000000000000000008152600401610b45906151af565b60405180910390fd5b600960003373ffffffffffffffffffffffffffffffffffffffff1673ffffffffffffffffffffffffffffffffffffffff16815260200190815260200160002060006004600088815260200190815260200160002060070160009054906101000a900473ffffffffffffffffffffffffffffffffffffffff1673ffffffffffffffffffffffffffffffffffffffff1673ffffffffffffffffffffffffffffffffffffffff16815260200190815260200160002054841115610c43576040517f08c379a0000000000000000000000000000000000000000000000000000000008152600401610c3a9061521b565b60405180910390fd5b73aaaaaaaaaaaaaaaaaaaaaaaaaaaaaaaaaaaaaaaa73ffffffffffffffffffffffffffffffffffffffff166004600087815260200190815260200160002060070160009054906101000a900473ffffffffffffffffffffffffffffffffffffffff1673ffffffffffffffffffffffffffffffffffffffff1614610d2e5760006004600087815260200190815260200160002060070160009054906101000a900473ffffffffffffffffffffffffffffffffffffffff169050610d283330868473ffffffffffffffffffffffffffffffffffffffff1661403a909392919063ffffffff16565b50610e44565b823414610d70576040517f08c379a0000000000000000000000000000000000000000000000000000000008152600401610d6790615287565b60405180910390fd5b6008600086815260200190815260200160002060006007600088815260200190815260200160002060009054906101000a900473ffffffffffffffffffffffffffffffffffffffff1673ffffffffffffffffffffffffffffffffffffffff1673ffffffffffffffffffffffffffffffffffffffff168152602001908152602001600020600201548434610e0391906150a1565b11610e43576040517f08c379a0000000000000000000000000000000000000000000000000000000008152600401610e3a906152f3565b60405180910390fd5b5b60006007600087815260200190815260200160002060009054906101000a900473ffffffffffffffffffffffffffffffffffffffff16905060006008600088815260200190815260200160002060008373ffffffffffffffffffffffffffffffffffffffff1673ffffffffffffffffffffffffffffffffffffffff1681526020019081526020016000206002015490508083610ee09190615313565b600a6000600460008b815260200190815260200160002060070160009054906101000a900473ffffffffffffffffffffffffffffffffffffffff1673ffffffffffffffffffffffffffffffffffffffff1673ffffffffffffffffffffffffffffffffffffffff1681526020019081526020016000206000828254610f6491906150a1565b92505081905550600073ffffffffffffffffffffffffffffffffffffffff166008600089815260200190815260200160002060003373ffffffffffffffffffffffffffffffffffffffff1673ffffffffffffffffffffffffffffffffffffffff16815260200190815260200160002060010160009054906101000a900473ffffffffffffffffffffffffffffffffffffffff1673ffffffffffffffffffffffffffffffffffffffff1614156110a657336008600089815260200190815260200160002060003373ffffffffffffffffffffffffffffffffffffffff1673ffffffffffffffffffffffffffffffffffffffff16815260200190815260200160002060010160006101000a81548173ffffffffffffffffffffffffffffffffffffffff021916908373ffffffffffffffffffffffffffffffffffffffff1602179055505b3373ffffffffffffffffffffffffffffffffffffffff168273ffffffffffffffffffffffffffffffffffffffff161461133f5760006008600089815260200190815260200160002060008473ffffffffffffffffffffffffffffffffffffffff1673ffffffffffffffffffffffffffffffffffffffff1681526020019081526020016000206002018190555080600960008473ffffffffffffffffffffffffffffffffffffffff1673ffffffffffffffffffffffffffffffffffffffff1681526020019081526020016000206000600460008b815260200190815260200160002060070160009054906101000a900473ffffffffffffffffffffffffffffffffffffffff1673ffffffffffffffffffffffffffffffffffffffff1673ffffffffffffffffffffffffffffffffffffffff16815260200190815260200160002060008282546111f491906150a1565b92505081905550600960008373ffffffffffffffffffffffffffffffffffffffff1673ffffffffffffffffffffffffffffffffffffffff1681526020019081526020016000206000600460008a815260200190815260200160002060070160009054906101000a900473ffffffffffffffffffffffffffffffffffffffff1673ffffffffffffffffffffffffffffffffffffffff1673ffffffffffffffffffffffffffffffffffffffff168152602001908152602001600020546004600089815260200190815260200160002060070160009054906101000a900473ffffffffffffffffffffffffffffffffffffffff1673ffffffffffffffffffffffffffffffffffffffff168373ffffffffffffffffffffffffffffffffffffffff167f2047d1633ff7768462ae07d28cb16e484203bfd6d85ce832494270ebcd9081a260405160405180910390a45b60008611156114a35785600960003373ffffffffffffffffffffffffffffffffffffffff1673ffffffffffffffffffffffffffffffffffffffff1681526020019081526020016000206000600460008b815260200190815260200160002060070160009054906101000a900473ffffffffffffffffffffffffffffffffffffffff1673ffffffffffffffffffffffffffffffffffffffff1673ffffffffffffffffffffffffffffffffffffffff168152602001908152602001600020600082825461140a9190615313565b92505081905550856004600089815260200190815260200160002060070160009054906101000a900473ffffffffffffffffffffffffffffffffffffffff1673ffffffffffffffffffffffffffffffffffffffff163373ffffffffffffffffffffffffffffffffffffffff167f2047d1633ff7768462ae07d28cb16e484203bfd6d85ce832494270ebcd9081a260405160405180910390a45b826008600089815260200190815260200160002060003373ffffffffffffffffffffffffffffffffffffffff1673ffffffffffffffffffffffffffffffffffffffff16815260200190815260200160002060020181905550426008600089815260200190815260200160002060003373ffffffffffffffffffffffffffffffffffffffff1673ffffffffffffffffffffffffffffffffffffffff16815260200190815260200160002060030181905550336007600089815260200190815260200160002060006101000a81548173ffffffffffffffffffffffffffffffffffffffff021916908373ffffffffffffffffffffffffffffffffffffffff1602179055507f0fc69407039e8ba8cdd517e2a4cae9dd19697b0a500ff37a2425c59ebc649b3187846040516115d6929190615347565b60405180910390a160019350505050600180819055509392505050565b6000600960008473ffffffffffffffffffffffffffffffffffffffff1673ffffffffffffffffffffffffffffffffffffffff16815260200190815260200160002060008373ffffffffffffffffffffffffffffffffffffffff1673ffffffffffffffffffffffffffffffffffffffff16815260200190815260200160002054905092915050565b6000600960003373ffffffffffffffffffffffffffffffffffffffff1673ffffffffffffffffffffffffffffffffffffffff16815260200190815260200160002060008373ffffffffffffffffffffffffffffffffffffffff1673ffffffffffffffffffffffffffffffffffffffff1681526020019081526020016000205411611739576040517f08c379a0000000000000000000000000000000000000000000000000000000008152600401611730906153bc565b60405180910390fd5b6000600960003373ffffffffffffffffffffffffffffffffffffffff1673ffffffffffffffffffffffffffffffffffffffff16815260200190815260200160002060008373ffffffffffffffffffffffffffffffffffffffff1673ffffffffffffffffffffffffffffffffffffffff16815260200190815260200160002054905073aaaaaaaaaaaaaaaaaaaaaaaaaaaaaaaaaaaaaaaa73ffffffffffffffffffffffffffffffffffffffff168273ffffffffffffffffffffffffffffffffffffffff16146118b95760008290506000600960003373ffffffffffffffffffffffffffffffffffffffff1673ffffffffffffffffffffffffffffffffffffffff16815260200190815260200160002060008573ffffffffffffffffffffffffffffffffffffffff1673ffffffffffffffffffffffffffffffffffffffff168152602001908152602001600020819055506118b333838373ffffffffffffffffffffffffffffffffffffffff166140c39092919063ffffffff16565b506119e9565b6000600960003373ffffffffffffffffffffffffffffffffffffffff1673ffffffffffffffffffffffffffffffffffffffff16815260200190815260200160002060008473ffffffffffffffffffffffffffffffffffffffff1673ffffffffffffffffffffffffffffffffffffffff1681526020019081526020016000208190555060003373ffffffffffffffffffffffffffffffffffffffff16826040516119619061540a565b60006040518083038185875af1925050503d806000811461199e576040519150601f19603f3d011682016040523d82523d6000602084013e6119a3565b606091505b50509050806119e7576040517f08c379a00000000000000000000000000000000000000000000000000000000081526004016119de9061546b565b60405180910390fd5b505b600960003373ffffffffffffffffffffffffffffffffffffffff1673ffffffffffffffffffffffffffffffffffffffff16815260200190815260200160002060008373ffffffffffffffffffffffffffffffffffffffff1673ffffffffffffffffffffffffffffffffffffffff168152602001908152602001600020548273ffffffffffffffffffffffffffffffffffffffff163373ffffffffffffffffffffffffffffffffffffffff167f2047d1633ff7768462ae07d28cb16e484203bfd6d85ce832494270ebcd9081a260405160405180910390a45050565b611acc613717565b73ffffffffffffffffffffffffffffffffffffffff16611aea611e83565b73ffffffffffffffffffffffffffffffffffffffff1614611b40576040517f08c379a0000000000000000000000000000000000000000000000000000000008152600401611b3790614cc4565b60405180910390fd5b611b4a6000614149565b565b6060611b58600261420d565b8211158015611b675750600082115b611ba6576040517f08c379a0000000000000000000000000000000000000000000000000000000008152600401611b9d906154d7565b60405180910390fd5b6005600083815260200190815260200160002060009054906101000a900460ff1680611c6b5750600360009054906101000a900473ffffffffffffffffffffffffffffffffffffffff1673ffffffffffffffffffffffffffffffffffffffff1663e055799d306040518263ffffffff1660e01b8152600401611c289190614822565b602060405180830381865afa158015611c45573d6000803e3d6000fd5b505050506040513d601f19601f82011682018060405250810190611c699190614f6d565b155b15611cad576040518060400160405280600981526020017f43414e43454c4c454400000000000000000000000000000000000000000000008152509050611e7e565b6006600083815260200190815260200160002060009054906101000a900460ff1615611d10576040518060400160405280600f81526020017f454e444544202620434c41494d454400000000000000000000000000000000008152509050611e7e565b6004600083815260200190815260200160002060040154421015611d6b576040518060400160405280600781526020017f50454e44494e47000000000000000000000000000000000000000000000000008152509050611e7e565b60046000838152602001908152602001600020600401544210158015611da65750600460008381526020019081526020016000206005015442105b15611de8576040518060400160405280600681526020017f41435449564500000000000000000000000000000000000000000000000000008152509050611e7e565b6004600083815260200190815260200160002060050154421115611e43576040518060400160405280600581526020017f454e4445440000000000000000000000000000000000000000000000000000008152509050611e7e565b6040517f08c379a0000000000000000000000000000000000000000000000000000000008152600401611e7590615543565b60405180910390fd5b919050565b60008060009054906101000a900473ffffffffffffffffffffffffffffffffffffffff16905090565b6004600082815260200190815260200160002060010160009054906101000a900473ffffffffffffffffffffffffffffffffffffffff1673ffffffffffffffffffffffffffffffffffffffff163373ffffffffffffffffffffffffffffffffffffffff161480611f4e5750611f1f611e83565b73ffffffffffffffffffffffffffffffffffffffff163373ffffffffffffffffffffffffffffffffffffffff16145b611f8d576040517f08c379a0000000000000000000000000000000000000000000000000000000008152600401611f84906155af565b60405180910390fd5b6040518060400160405280600681526020017f414354495645000000000000000000000000000000000000000000000000000081525080519060200120611fd382611b4c565b80519060200120148061203057506040518060400160405280600781526020017f50454e44494e47000000000000000000000000000000000000000000000000008152508051906020012061202782611b4c565b80519060200120145b61206f576040517f08c379a00000000000000000000000000000000000000000000000000000000081526004016120669061561b565b60405180910390fd5b60016005600083815260200190815260200160002060006101000a81548160ff02191690831515021790555060006007600083815260200190815260200160002060009054906101000a900473ffffffffffffffffffffffffffffffffffffffff16905060006008600084815260200190815260200160002060008373ffffffffffffffffffffffffffffffffffffffff1673ffffffffffffffffffffffffffffffffffffffff16815260200190815260200160002060020154905080600a60006004600087815260200190815260200160002060070160009054906101000a900473ffffffffffffffffffffffffffffffffffffffff1673ffffffffffffffffffffffffffffffffffffffff1673ffffffffffffffffffffffffffffffffffffffff16815260200190815260200160002060008282546121b09190615313565b9250508190555080600960008473ffffffffffffffffffffffffffffffffffffffff1673ffffffffffffffffffffffffffffffffffffffff16815260200190815260200160002060006004600087815260200190815260200160002060070160009054906101000a900473ffffffffffffffffffffffffffffffffffffffff1673ffffffffffffffffffffffffffffffffffffffff1673ffffffffffffffffffffffffffffffffffffffff168152602001908152602001600020600082825461227991906150a1565b92505081905550600960008373ffffffffffffffffffffffffffffffffffffffff1673ffffffffffffffffffffffffffffffffffffffff16815260200190815260200160002060006004600086815260200190815260200160002060070160009054906101000a900473ffffffffffffffffffffffffffffffffffffffff1673ffffffffffffffffffffffffffffffffffffffff1673ffffffffffffffffffffffffffffffffffffffff168152602001908152602001600020546004600085815260200190815260200160002060070160009054906101000a900473ffffffffffffffffffffffffffffffffffffffff1673ffffffffffffffffffffffffffffffffffffffff168373ffffffffffffffffffffffffffffffffffffffff167f2047d1633ff7768462ae07d28cb16e484203bfd6d85ce832494270ebcd9081a260405160405180910390a4827f2809c7e17bf978fbc7194c0a694b638c4215e9140cacc6c38ca36010b45697df60405160405180910390a2505050565b6123fd61449e565b6008600084815260200190815260200160002060008373ffffffffffffffffffffffffffffffffffffffff1673ffffffffffffffffffffffffffffffffffffffff168152602001908152602001600020604051806080016040529081600082015481526020016001820160009054906101000a900473ffffffffffffffffffffffffffffffffffffffff1673ffffffffffffffffffffffffffffffffffffffff1673ffffffffffffffffffffffffffffffffffffffff16815260200160028201548152602001600382015481525050905092915050565b60006007600084815260200190815260200160002060009054906101000a900473ffffffffffffffffffffffffffffffffffffffff1673ffffffffffffffffffffffffffffffffffffffff163373ffffffffffffffffffffffffffffffffffffffff1614806125a457506004600084815260200190815260200160002060010160009054906101000a900473ffffffffffffffffffffffffffffffffffffffff1673ffffffffffffffffffffffffffffffffffffffff163373ffffffffffffffffffffffffffffffffffffffff16145b6125e3576040517f08c379a00000000000000000000000000000000000000000000000000000000081526004016125da90615687565b60405180910390fd5b60006125ee84611b4c565b8051906020012090506040518060400160405280600981526020017f43414e43454c4c454400000000000000000000000000000000000000000000008152508051906020012081148061267c57506040518060400160405280600581526020017f454e4445440000000000000000000000000000000000000000000000000000008152508051906020012081145b6126bb576040517f08c379a00000000000000000000000000000000000000000000000000000000081526004016126b2906156f3565b60405180910390fd5b60006004600086815260200190815260200160002060020160009054906101000a900473ffffffffffffffffffffffffffffffffffffffff16905060006004600087815260200190815260200160002060010160009054906101000a900473ffffffffffffffffffffffffffffffffffffffff1673ffffffffffffffffffffffffffffffffffffffff163373ffffffffffffffffffffffffffffffffffffffff16146127ed576008600087815260200190815260200160002060006007600089815260200190815260200160002060009054906101000a900473ffffffffffffffffffffffffffffffffffffffff1673ffffffffffffffffffffffffffffffffffffffff1673ffffffffffffffffffffffffffffffffffffffff168152602001908152602001600020600201546127f0565b60005b90506007600087815260200190815260200160002060009054906101000a900473ffffffffffffffffffffffffffffffffffffffff1673ffffffffffffffffffffffffffffffffffffffff163373ffffffffffffffffffffffffffffffffffffffff16141561299557600460008781526020019081526020016000206005015442116128b1576040517f08c379a00000000000000000000000000000000000000000000000000000000081526004016128a89061575f565b60405180910390fd5b6004600087815260200190815260200160002060060154600860008881526020019081526020016000206000600760008a815260200190815260200160002060009054906101000a900473ffffffffffffffffffffffffffffffffffffffff1673ffffffffffffffffffffffffffffffffffffffff1673ffffffffffffffffffffffffffffffffffffffff168152602001908152602001600020600201541015612990576040517f08c379a0000000000000000000000000000000000000000000000000000000008152600401612987906157cb565b60405180910390fd5b612b28565b6004600087815260200190815260200160002060010160009054906101000a900473ffffffffffffffffffffffffffffffffffffffff1673ffffffffffffffffffffffffffffffffffffffff163373ffffffffffffffffffffffffffffffffffffffff161415612b27576005600087815260200190815260200160002060009054906101000a900460ff1680612ae757506004600087815260200190815260200160002060060154600860008881526020019081526020016000206000600760008a815260200190815260200160002060009054906101000a900473ffffffffffffffffffffffffffffffffffffffff1673ffffffffffffffffffffffffffffffffffffffff1673ffffffffffffffffffffffffffffffffffffffff16815260200190815260200160002060020154108015612ae65750600460008781526020019081526020016000206005015442115b5b612b26576040517f08c379a0000000000000000000000000000000000000000000000000000000008152600401612b1d90615837565b60405180910390fd5b5b5b6000811115612b3d57612b3c86828461371f565b5b8173ffffffffffffffffffffffffffffffffffffffff1663f242432a3087600460008b81526020019081526020016000206003015460016040518563ffffffff1660e01b8152600401612b939493929190614e38565b600060405180830381600087803b158015612bad57600080fd5b505af1158015612bc1573d6000803e3d6000fd5b5050505060016006600088815260200190815260200160002060006101000a81548160ff0219169083151502179055507f5dfaf32218417fc162670c095b06ca483b2ae080a3a449c6d1c3b95b47485ae560046000888152602001908152602001600020600301543387600860008b81526020019081526020016000206000600760008d815260200190815260200160002060009054906101000a900473ffffffffffffffffffffffffffffffffffffffff1673ffffffffffffffffffffffffffffffffffffffff1673ffffffffffffffffffffffffffffffffffffffff16815260200190815260200160002060020154604051612cc29493929190614e90565b60405180910390a16001935050505092915050565b60006007600083815260200190815260200160002060009054906101000a900473ffffffffffffffffffffffffffffffffffffffff169050919050565b600060026001541415612d5c576040517f08c379a0000000000000000000000000000000000000000000000000000000008152600401612d5390614f21565b60405180910390fd5b6002600181905550600087905060011515600360009054906101000a900473ffffffffffffffffffffffffffffffffffffffff1673ffffffffffffffffffffffffffffffffffffffff1663e055799d8a6040518263ffffffff1660e01b8152600401612dc89190614822565b602060405180830381865afa158015612de5573d6000803e3d6000fd5b505050506040513d601f19601f82011682018060405250810190612e099190614f6d565b151514612e4b576040517f08c379a0000000000000000000000000000000000000000000000000000000008152600401612e42906158a3565b60405180910390fd5b60011515600360009054906101000a900473ffffffffffffffffffffffffffffffffffffffff1673ffffffffffffffffffffffffffffffffffffffff1663e055799d306040518263ffffffff1660e01b8152600401612eaa9190614822565b602060405180830381865afa158015612ec7573d6000803e3d6000fd5b505050506040513d601f19601f82011682018060405250810190612eeb9190614f6d565b151514612f2d576040517f08c379a0000000000000000000000000000000000000000000000000000000008152600401612f2490614fe6565b60405180910390fd5b60011515600360009054906101000a900473ffffffffffffffffffffffffffffffffffffffff1673ffffffffffffffffffffffffffffffffffffffff1663fd0176d2856040518263ffffffff1660e01b8152600401612f8c9190614822565b602060405180830381865afa158015612fa9573d6000803e3d6000fd5b505050506040513d601f19601f82011682018060405250810190612fcd9190614f6d565b15151461300f576040517f08c379a00000000000000000000000000000000000000000000000000000000081526004016130069061590f565b60405180910390fd5b8073ffffffffffffffffffffffffffffffffffffffff166301ffc9a7632a55205a6040518263ffffffff1660e01b815260040161304c9190615977565b6020604051808303816000875af115801561306b573d6000803e3d6000fd5b505050506040513d601f19601f8201168201806040525081019061308f9190614f6d565b6130ce576040517f08c379a00000000000000000000000000000000000000000000000000000000081526004016130c5906159de565b60405180910390fd5b60008173ffffffffffffffffffffffffffffffffffffffff1662fdd58e338a6040518363ffffffff1660e01b815260040161310a9291906159fe565b602060405180830381865afa158015613127573d6000803e3d6000fd5b505050506040513d601f19601f8201168201806040525081019061314b9190615a3c565b1161318b576040517f08c379a000000000000000000000000000000000000000000000000000000000815260040161318290615ab5565b60405180910390fd5b8585116131cd576040517f08c379a00000000000000000000000000000000000000000000000000000000081526004016131c490615b21565b60405180910390fd5b6131d7600261421b565b60006131e3600261420d565b90506040518061010001604052808281526020013373ffffffffffffffffffffffffffffffffffffffff1681526020018a73ffffffffffffffffffffffffffffffffffffffff1681526020018981526020018881526020018781526020018681526020018573ffffffffffffffffffffffffffffffffffffffff16815250600460008381526020019081526020016000206000820151816000015560208201518160010160006101000a81548173ffffffffffffffffffffffffffffffffffffffff021916908373ffffffffffffffffffffffffffffffffffffffff16021790555060408201518160020160006101000a81548173ffffffffffffffffffffffffffffffffffffffff021916908373ffffffffffffffffffffffffffffffffffffffff160217905550606082015181600301556080820151816004015560a0820151816005015560c0820151816006015560e08201518160070160006101000a81548173ffffffffffffffffffffffffffffffffffffffff021916908373ffffffffffffffffffffffffffffffffffffffff1602179055509050508173ffffffffffffffffffffffffffffffffffffffff1663f242432a33308b60016040518563ffffffff1660e01b81526004016133be9493929190614e38565b600060405180830381600087803b1580156133d857600080fd5b505af11580156133ec573d6000803e3d6000fd5b50505050807f601dac28f39e82b4c2124ccc9583168a9aa35a9cba3ab234dce62900fe083754600460008481526020019081526020016000206040516134329190615ca8565b60405180910390a28092505050600180819055509695505050505050565b6134586144dc565b613462600261420d565b82111580156134715750600082115b6134b0576040517f08c379a00000000000000000000000000000000000000000000000000000000081526004016134a7906154d7565b60405180910390fd5b6004600083815260200190815260200160002060405180610100016040529081600082015481526020016001820160009054906101000a900473ffffffffffffffffffffffffffffffffffffffff1673ffffffffffffffffffffffffffffffffffffffff1673ffffffffffffffffffffffffffffffffffffffff1681526020016002820160009054906101000a900473ffffffffffffffffffffffffffffffffffffffff1673ffffffffffffffffffffffffffffffffffffffff1673ffffffffffffffffffffffffffffffffffffffff168152602001600382015481526020016004820154815260200160058201548152602001600682015481526020016007820160009054906101000a900473ffffffffffffffffffffffffffffffffffffffff1673ffffffffffffffffffffffffffffffffffffffff1673ffffffffffffffffffffffffffffffffffffffff16815250509050919050565b600063f23a6e6160e01b905095945050505050565b613627613717565b73ffffffffffffffffffffffffffffffffffffffff16613645611e83565b73ffffffffffffffffffffffffffffffffffffffff161461369b576040517f08c379a000000000000000000000000000000000000000000000000000000000815260040161369290614cc4565b60405180910390fd5b600073ffffffffffffffffffffffffffffffffffffffff168173ffffffffffffffffffffffffffffffffffffffff16141561370b576040517f08c379a000000000000000000000000000000000000000000000000000000000815260040161370290615d36565b60405180910390fd5b61371481614149565b50565b600033905090565b81600a60006004600087815260200190815260200160002060070160009054906101000a900473ffffffffffffffffffffffffffffffffffffffff1673ffffffffffffffffffffffffffffffffffffffff1673ffffffffffffffffffffffffffffffffffffffff16815260200190815260200160002060008282546137a49190615313565b925050819055506000808273ffffffffffffffffffffffffffffffffffffffff16632a55205a6004600088815260200190815260200160002060030154866040518363ffffffff1660e01b81526004016137ff929190615347565b6040805180830381865afa15801561381b573d6000803e3d6000fd5b505050506040513d601f19601f8201168201806040525081019061383f9190615d6b565b91509150600080600360009054906101000a900473ffffffffffffffffffffffffffffffffffffffff1673ffffffffffffffffffffffffffffffffffffffff1663e44f5c50876040518263ffffffff1660e01b81526004016138a19190614710565b6040805180830381865afa1580156138bd573d6000803e3d6000fd5b505050506040513d601f19601f820116820180604052508101906138e19190615d6b565b9150915080866138f19190615313565b955080600960008473ffffffffffffffffffffffffffffffffffffffff1673ffffffffffffffffffffffffffffffffffffffff1681526020019081526020016000206000600460008b815260200190815260200160002060070160009054906101000a900473ffffffffffffffffffffffffffffffffffffffff1673ffffffffffffffffffffffffffffffffffffffff1673ffffffffffffffffffffffffffffffffffffffff16815260200190815260200160002060008282546139b591906150a1565b92505081905550600960008373ffffffffffffffffffffffffffffffffffffffff1673ffffffffffffffffffffffffffffffffffffffff1681526020019081526020016000206000600460008a815260200190815260200160002060070160009054906101000a900473ffffffffffffffffffffffffffffffffffffffff1673ffffffffffffffffffffffffffffffffffffffff1673ffffffffffffffffffffffffffffffffffffffff168152602001908152602001600020546004600089815260200190815260200160002060070160009054906101000a900473ffffffffffffffffffffffffffffffffffffffff1673ffffffffffffffffffffffffffffffffffffffff168373ffffffffffffffffffffffffffffffffffffffff167f2047d1633ff7768462ae07d28cb16e484203bfd6d85ce832494270ebcd9081a260405160405180910390a48373ffffffffffffffffffffffffffffffffffffffff166004600089815260200190815260200160002060010160009054906101000a900473ffffffffffffffffffffffffffffffffffffffff1673ffffffffffffffffffffffffffffffffffffffff1614613d83578286613b749190615313565b955082600960008673ffffffffffffffffffffffffffffffffffffffff1673ffffffffffffffffffffffffffffffffffffffff1681526020019081526020016000206000600460008b815260200190815260200160002060070160009054906101000a900473ffffffffffffffffffffffffffffffffffffffff1673ffffffffffffffffffffffffffffffffffffffff1673ffffffffffffffffffffffffffffffffffffffff1681526020019081526020016000206000828254613c3891906150a1565b92505081905550600960008573ffffffffffffffffffffffffffffffffffffffff1673ffffffffffffffffffffffffffffffffffffffff1681526020019081526020016000206000600460008a815260200190815260200160002060070160009054906101000a900473ffffffffffffffffffffffffffffffffffffffff1673ffffffffffffffffffffffffffffffffffffffff1673ffffffffffffffffffffffffffffffffffffffff168152602001908152602001600020546004600089815260200190815260200160002060070160009054906101000a900473ffffffffffffffffffffffffffffffffffffffff1673ffffffffffffffffffffffffffffffffffffffff168573ffffffffffffffffffffffffffffffffffffffff167f2047d1633ff7768462ae07d28cb16e484203bfd6d85ce832494270ebcd9081a260405160405180910390a45b8560096000600460008b815260200190815260200160002060010160009054906101000a900473ffffffffffffffffffffffffffffffffffffffff1673ffffffffffffffffffffffffffffffffffffffff1673ffffffffffffffffffffffffffffffffffffffff1681526020019081526020016000206000600460008b815260200190815260200160002060070160009054906101000a900473ffffffffffffffffffffffffffffffffffffffff1673ffffffffffffffffffffffffffffffffffffffff1673ffffffffffffffffffffffffffffffffffffffff1681526020019081526020016000206000828254613e7b91906150a1565b9250508190555060096000600460008a815260200190815260200160002060010160009054906101000a900473ffffffffffffffffffffffffffffffffffffffff1673ffffffffffffffffffffffffffffffffffffffff1673ffffffffffffffffffffffffffffffffffffffff1681526020019081526020016000206000600460008a815260200190815260200160002060070160009054906101000a900473ffffffffffffffffffffffffffffffffffffffff1673ffffffffffffffffffffffffffffffffffffffff1673ffffffffffffffffffffffffffffffffffffffff168152602001908152602001600020546004600089815260200190815260200160002060070160009054906101000a900473ffffffffffffffffffffffffffffffffffffffff1673ffffffffffffffffffffffffffffffffffffffff16600460008a815260200190815260200160002060010160009054906101000a900473ffffffffffffffffffffffffffffffffffffffff1673ffffffffffffffffffffffffffffffffffffffff167f2047d1633ff7768462ae07d28cb16e484203bfd6d85ce832494270ebcd9081a260405160405180910390a450505050505050565b6140bd846323b872dd60e01b85858560405160240161405b93929190615dab565b604051602081830303815290604052907bffffffffffffffffffffffffffffffffffffffffffffffffffffffff19166020820180517bffffffffffffffffffffffffffffffffffffffffffffffffffffffff8381831617835250505050614231565b50505050565b6141448363a9059cbb60e01b84846040516024016140e29291906159fe565b604051602081830303815290604052907bffffffffffffffffffffffffffffffffffffffffffffffffffffffff19166020820180517bffffffffffffffffffffffffffffffffffffffffffffffffffffffff8381831617835250505050614231565b505050565b60008060009054906101000a900473ffffffffffffffffffffffffffffffffffffffff169050816000806101000a81548173ffffffffffffffffffffffffffffffffffffffff021916908373ffffffffffffffffffffffffffffffffffffffff1602179055508173ffffffffffffffffffffffffffffffffffffffff168173ffffffffffffffffffffffffffffffffffffffff167f8be0079c531659141344cd1fd0a4f28419497f9722a3daafe3b4186f6b6457e060405160405180910390a35050565b600081600001549050919050565b6001816000016000828254019250508190555050565b6000614293826040518060400160405280602081526020017f5361666545524332303a206c6f772d6c6576656c2063616c6c206661696c65648152508573ffffffffffffffffffffffffffffffffffffffff166142f89092919063ffffffff16565b90506000815111156142f357808060200190518101906142b39190614f6d565b6142f2576040517f08c379a00000000000000000000000000000000000000000000000000000000081526004016142e990615e54565b60405180910390fd5b5b505050565b60606143078484600085614310565b90509392505050565b606082471015614355576040517f08c379a000000000000000000000000000000000000000000000000000000000815260040161434c90615ee6565b60405180910390fd5b61435e85614424565b61439d576040517f08c379a000000000000000000000000000000000000000000000000000000000815260040161439490615f52565b60405180910390fd5b6000808673ffffffffffffffffffffffffffffffffffffffff1685876040516143c69190615fae565b60006040518083038185875af1925050503d8060008114614403576040519150601f19603f3d011682016040523d82523d6000602084013e614408565b606091505b5091509150614418828286614437565b92505050949350505050565b600080823b905060008111915050919050565b6060831561444757829050614497565b60008351111561445a5782518084602001fd5b816040517f08c379a000000000000000000000000000000000000000000000000000000000815260040161448e91906147f1565b60405180910390fd5b9392505050565b604051806080016040528060008152602001600073ffffffffffffffffffffffffffffffffffffffff16815260200160008152602001600081525090565b60405180610100016040528060008152602001600073ffffffffffffffffffffffffffffffffffffffff168152602001600073ffffffffffffffffffffffffffffffffffffffff16815260200160008152602001600081526020016000815260200160008152602001600073ffffffffffffffffffffffffffffffffffffffff1681525090565b6000604051905090565b600080fd5b600080fd5b6000819050919050565b61458a81614577565b811461459557600080fd5b50565b6000813590506145a781614581565b92915050565b6000602082840312156145c3576145c261456d565b5b60006145d184828501614598565b91505092915050565b6000806000606084860312156145f3576145f261456d565b5b600061460186828701614598565b935050602061461286828701614598565b925050604061462386828701614598565b9150509250925092565b60008115159050919050565b6146428161462d565b82525050565b600060208201905061465d6000830184614639565b92915050565b600073ffffffffffffffffffffffffffffffffffffffff82169050919050565b600061468e82614663565b9050919050565b61469e81614683565b81146146a957600080fd5b50565b6000813590506146bb81614695565b92915050565b600080604083850312156146d8576146d761456d565b5b60006146e6858286016146ac565b92505060206146f7858286016146ac565b9150509250929050565b61470a81614577565b82525050565b60006020820190506147256000830184614701565b92915050565b6000602082840312156147415761474061456d565b5b600061474f848285016146ac565b91505092915050565b600081519050919050565b600082825260208201905092915050565b60005b83811015614792578082015181840152602081019050614777565b838111156147a1576000848401525b50505050565b6000601f19601f8301169050919050565b60006147c382614758565b6147cd8185614763565b93506147dd818560208601614774565b6147e6816147a7565b840191505092915050565b6000602082019050818103600083015261480b81846147b8565b905092915050565b61481c81614683565b82525050565b60006020820190506148376000830184614813565b92915050565b600080604083850312156148545761485361456d565b5b600061486285828601614598565b9250506020614873858286016146ac565b9150509250929050565b61488681614577565b82525050565b61489581614683565b82525050565b6080820160008201516148b1600085018261487d565b5060208201516148c4602085018261488c565b5060408201516148d7604085018261487d565b5060608201516148ea606085018261487d565b50505050565b6000608082019050614905600083018461489b565b92915050565b60008060008060008060c087890312156149285761492761456d565b5b600061493689828a016146ac565b965050602061494789828a01614598565b955050604061495889828a01614598565b945050606061496989828a01614598565b935050608061497a89828a01614598565b92505060a061498b89828a016146ac565b9150509295509295509295565b610100820160008201516149af600085018261487d565b5060208201516149c2602085018261488c565b5060408201516149d5604085018261488c565b5060608201516149e8606085018261487d565b5060808201516149fb608085018261487d565b5060a0820151614a0e60a085018261487d565b5060c0820151614a2160c085018261487d565b5060e0820151614a3460e085018261488c565b50505050565b600061010082019050614a506000830184614998565b92915050565b600080fd5b600080fd5b7f4e487b7100000000000000000000000000000000000000000000000000000000600052604160045260246000fd5b614a98826147a7565b810181811067ffffffffffffffff82111715614ab757614ab6614a60565b5b80604052505050565b6000614aca614563565b9050614ad68282614a8f565b919050565b600067ffffffffffffffff821115614af657614af5614a60565b5b614aff826147a7565b9050602081019050919050565b82818337600083830152505050565b6000614b2e614b2984614adb565b614ac0565b905082815260208101848484011115614b4a57614b49614a5b565b5b614b55848285614b0c565b509392505050565b600082601f830112614b7257614b71614a56565b5b8135614b82848260208601614b1b565b91505092915050565b600080600080600060a08688031215614ba757614ba661456d565b5b6000614bb5888289016146ac565b9550506020614bc6888289016146ac565b9450506040614bd788828901614598565b9350506060614be888828901614598565b925050608086013567ffffffffffffffff811115614c0957614c08614572565b5b614c1588828901614b5d565b9150509295509295909350565b60007fffffffff0000000000000000000000000000000000000000000000000000000082169050919050565b614c5781614c22565b82525050565b6000602082019050614c726000830184614c4e565b92915050565b7f4f776e61626c653a2063616c6c6572206973206e6f7420746865206f776e6572600082015250565b6000614cae602083614763565b9150614cb982614c78565b602082019050919050565b60006020820190508181036000830152614cdd81614ca1565b9050919050565b7f63616e206f6e6c79207265736f6c766520454e44454400000000000000000000600082015250565b6000614d1a601683614763565b9150614d2582614ce4565b602082019050919050565b60006020820190508181036000830152614d4981614d0d565b9050919050565b7f6e6f20626964733a2063616e6e6f74207265736f6c7665000000000000000000600082015250565b6000614d86601783614763565b9150614d9182614d50565b602082019050919050565b60006020820190508181036000830152614db581614d79565b9050919050565b6000819050919050565b6000819050919050565b6000614deb614de6614de184614dbc565b614dc6565b614577565b9050919050565b614dfb81614dd0565b82525050565b600082825260208201905092915050565b50565b6000614e22600083614e01565b9150614e2d82614e12565b600082019050919050565b600060a082019050614e4d6000830187614813565b614e5a6020830186614813565b614e676040830185614701565b614e746060830184614df2565b8181036080830152614e8581614e15565b905095945050505050565b6000608082019050614ea56000830187614701565b614eb26020830186614813565b614ebf6040830185614813565b614ecc6060830184614701565b95945050505050565b7f5265656e7472616e637947756172643a207265656e7472616e742063616c6c00600082015250565b6000614f0b601f83614763565b9150614f1682614ed5565b602082019050919050565b60006020820190508181036000830152614f3a81614efe565b9050919050565b614f4a8161462d565b8114614f5557600080fd5b50565b600081519050614f6781614f41565b92915050565b600060208284031215614f8357614f8261456d565b5b6000614f9184828501614f58565b91505092915050565b7f5468697320636f6e747261637420697320646570726563617465640000000000600082015250565b6000614fd0601b83614763565b9150614fdb82614f9a565b602082019050919050565b60006020820190508181036000830152614fff81614fc3565b9050919050565b7f61756374696f6e206973206e6f74206163746976650000000000000000000000600082015250565b600061503c601583614763565b915061504782615006565b602082019050919050565b6000602082019050818103600083015261506b8161502f565b9050919050565b7f4e487b7100000000000000000000000000000000000000000000000000000000600052601160045260246000fd5b60006150ac82614577565b91506150b783614577565b9250827fffffffffffffffffffffffffffffffffffffffffffffffffffffffffffffffff038211156150ec576150eb615072565b5b828201905092915050565b7f626964206e6f74206869676820656e6f75676800000000000000000000000000600082015250565b600061512d601383614763565b9150615138826150f7565b602082019050919050565b6000602082019050818103600083015261515c81615120565b9050919050565b7f626964206973206c6f776572207468616e207265736572766520707269636500600082015250565b6000615199601f83614763565b91506151a482615163565b602082019050919050565b600060208201905081810360008301526151c88161518c565b9050919050565b7f6e6f7420656e6f7567682062616c616e63650000000000000000000000000000600082015250565b6000615205601283614763565b9150615210826151cf565b602082019050919050565b60006020820190508181036000830152615234816151f8565b9050919050565b7f6d69736d61746368206f662076616c756520616e642061726773000000000000600082015250565b6000615271601a83614763565b915061527c8261523b565b602082019050919050565b600060208201905081810360008301526152a081615264565b9050919050565b7f696e73756666696369656e74204554482073656e740000000000000000000000600082015250565b60006152dd601583614763565b91506152e8826152a7565b602082019050919050565b6000602082019050818103600083015261530c816152d0565b9050919050565b600061531e82614577565b915061532983614577565b92508282101561533c5761533b615072565b5b828203905092915050565b600060408201905061535c6000830185614701565b6153696020830184614701565b9392505050565b7f6e6f7468696e6720746f20636c61696d00000000000000000000000000000000600082015250565b60006153a6601083614763565b91506153b182615370565b602082019050919050565b600060208201905081810360008301526153d581615399565b9050919050565b600081905092915050565b60006153f46000836153dc565b91506153ff82614e12565b600082019050919050565b6000615415826153e7565b9150819050919050565b7f455448207061796f7574206661696c6564000000000000000000000000000000600082015250565b6000615455601183614763565b91506154608261541f565b602082019050919050565b6000602082019050818103600083015261548481615448565b9050919050565b7f61756374696f6e20646f6573206e6f7420657869737400000000000000000000600082015250565b60006154c1601683614763565b91506154cc8261548b565b602082019050919050565b600060208201905081810360008301526154f0816154b4565b9050919050565b7f6572726f72000000000000000000000000000000000000000000000000000000600082015250565b600061552d600583614763565b9150615538826154f7565b602082019050919050565b6000602082019050818103600083015261555c81615520565b9050919050565b7f6f6e6c79206f776e6572206f722073616c652063726561746f72000000000000600082015250565b6000615599601a83614763565b91506155a482615563565b602082019050919050565b600060208201905081810360008301526155c88161558c565b9050919050565b7f6d75737420626520616374697665206f722070656e64696e6700000000000000600082015250565b6000615605601983614763565b9150615610826155cf565b602082019050919050565b60006020820190508181036000830152615634816155f8565b9050919050565b7f63616e6e6f7420636c61696d206e667400000000000000000000000000000000600082015250565b6000615671601083614763565b915061567c8261563b565b602082019050919050565b600060208201905081810360008301526156a081615664565b9050919050565b7f6e6674206e6f7420617661696c61626c6520666f7220636c61696d696e670000600082015250565b60006156dd601e83614763565b91506156e8826156a7565b602082019050919050565b6000602082019050818103600083015261570c816156d0565b9050919050565b7f63616e6e6f7420636c61696d2066726f6d2061756374696f6e00000000000000600082015250565b6000615749601983614763565b915061575482615713565b602082019050919050565b600060208201905081810360008301526157788161573c565b9050919050565b7f72657365727665207072696365206e6f74206d65740000000000000000000000600082015250565b60006157b5601583614763565b91506157c08261577f565b602082019050919050565b600060208201905081810360008301526157e4816157a8565b9050919050565b7f6f776e65722063616e6e6f74207265636c61696d206e66740000000000000000600082015250565b6000615821601883614763565b915061582c826157eb565b602082019050919050565b6000602082019050818103600083015261585081615814565b9050919050565b7f4e4654206e6f7420696e20617070726f76656420636f6e747261637400000000600082015250565b600061588d601c83614763565b915061589882615857565b602082019050919050565b600060208201905081810360008301526158bc81615880565b9050919050565b7f63757272656e6379206e6f7420737570706f7274656400000000000000000000600082015250565b60006158f9601683614763565b9150615904826158c3565b602082019050919050565b60006020820190508181036000830152615928816158ec565b9050919050565b6000819050919050565b60008160e01b9050919050565b600061596161595c6159578461592f565b615939565b614c22565b9050919050565b61597181615946565b82525050565b600060208201905061598c6000830184615968565b92915050565b7f636f6e7472616374206d75737420737570706f72742045524332393831000000600082015250565b60006159c8601d83614763565b91506159d382615992565b602082019050919050565b600060208201905081810360008301526159f7816159bb565b9050919050565b6000604082019050615a136000830185614813565b615a206020830184614701565b9392505050565b600081519050615a3681614581565b92915050565b600060208284031215615a5257615a5161456d565b5b6000615a6084828501615a27565b91505092915050565b7f646f6573206e6f74206f776e204e465400000000000000000000000000000000600082015250565b6000615a9f601083614763565b9150615aaa82615a69565b602082019050919050565b60006020820190508181036000830152615ace81615a92565b9050919050565b7f6572726f7220696e2073746172742f656e6420706172616d7300000000000000600082015250565b6000615b0b601983614763565b9150615b1682615ad5565b602082019050919050565b60006020820190508181036000830152615b3a81615afe565b9050919050565b60008160001c9050919050565b6000819050919050565b6000615b6b615b6683615b41565b615b4e565b9050919050565b600073ffffffffffffffffffffffffffffffffffffffff82169050919050565b6000615ba5615ba083615b41565b615b72565b9050919050565b61010082016000808301549050615bc281615b58565b615bcf600086018261487d565b5060018301549050615be081615b92565b615bed602086018261488c565b5060028301549050615bfe81615b92565b615c0b604086018261488c565b5060038301549050615c1c81615b58565b615c29606086018261487d565b5060048301549050615c3a81615b58565b615c47608086018261487d565b5060058301549050615c5881615b58565b615c6560a086018261487d565b5060068301549050615c7681615b58565b615c8360c086018261487d565b5060078301549050615c9481615b92565b615ca160e086018261488c565b5050505050565b600061010082019050615cbe6000830184615bac565b92915050565b7f4f776e61626c653a206e6577206f776e657220697320746865207a65726f206160008201527f6464726573730000000000000000000000000000000000000000000000000000602082015250565b6000615d20602683614763565b9150615d2b82615cc4565b604082019050919050565b60006020820190508181036000830152615d4f81615d13565b9050919050565b600081519050615d6581614695565b92915050565b60008060408385031215615d8257615d8161456d565b5b6000615d9085828601615d56565b9250506020615da185828601615a27565b9150509250929050565b6000606082019050615dc06000830186614813565b615dcd6020830185614813565b615dda6040830184614701565b949350505050565b7f5361666545524332303a204552433230206f7065726174696f6e20646964206e60008201527f6f74207375636365656400000000000000000000000000000000000000000000602082015250565b6000615e3e602a83614763565b9150615e4982615de2565b604082019050919050565b60006020820190508181036000830152615e6d81615e31565b9050919050565b7f416464726573733a20696e73756666696369656e742062616c616e636520666f60008201527f722063616c6c0000000000000000000000000000000000000000000000000000602082015250565b6000615ed0602683614763565b9150615edb82615e74565b604082019050919050565b60006020820190508181036000830152615eff81615ec3565b9050919050565b7f416464726573733a2063616c6c20746f206e6f6e2d636f6e7472616374000000600082015250565b6000615f3c601d83614763565b9150615f4782615f06565b602082019050919050565b60006020820190508181036000830152615f6b81615f2f565b9050919050565b600081519050919050565b6000615f8882615f72565b615f9281856153dc565b9350615fa2818560208601614774565b80840191505092915050565b6000615fba8284615f7d565b91508190509291505056fea26469706673582212200b8827e4aee31544b34eef1c9c50d3bc4f89e4a1564b030f24e4fbaf17cf66d664736f6c634300080a0033",
  "linkReferences": {},
  "deployedLinkReferences": {}
}