{
  "_format": "hh-sol-artifact-1",
  "contractName": "IndiNFT",
  "sourceName": "contracts/IndiNFT.sol",
  "abi": [
    {
      "inputs": [],
      "stateMutability": "nonpayable",
      "type": "constructor"
    },
    {
      "anonymous": false,
      "inputs": [
        {
          "indexed": true,
          "internalType": "address",
          "name": "account",
          "type": "address"
        },
        {
          "indexed": true,
          "internalType": "address",
          "name": "operator",
          "type": "address"
        },
        {
          "indexed": false,
          "internalType": "bool",
          "name": "approved",
          "type": "bool"
        }
      ],
      "name": "ApprovalForAll",
      "type": "event"
    },
    {
      "anonymous": false,
      "inputs": [
        {
          "indexed": true,
          "internalType": "uint256",
          "name": "tokenId",
          "type": "uint256"
        },
        {
          "indexed": false,
          "internalType": "string",
          "name": "categoryId",
          "type": "string"
        },
        {
          "indexed": false,
          "internalType": "string",
          "name": "uri",
          "type": "string"
        }
      ],
      "name": "Mint",
      "type": "event"
    },
    {
      "anonymous": false,
      "inputs": [
        {
          "indexed": true,
          "internalType": "address",
          "name": "previousOwner",
          "type": "address"
        },
        {
          "indexed": true,
          "internalType": "address",
          "name": "newOwner",
          "type": "address"
        }
      ],
      "name": "OwnershipTransferred",
      "type": "event"
    },
    {
      "anonymous": false,
      "inputs": [
        {
          "indexed": true,
          "internalType": "uint256",
          "name": "tokenId",
          "type": "uint256"
        },
        {
          "indexed": true,
          "internalType": "bool",
          "name": "redeemable",
          "type": "bool"
        },
        {
          "indexed": true,
          "internalType": "string",
          "name": "description",
          "type": "string"
        }
      ],
      "name": "RedeemDetailsSet",
      "type": "event"
    },
    {
      "anonymous": false,
      "inputs": [
        {
          "indexed": true,
          "internalType": "uint256",
          "name": "rate",
          "type": "uint256"
        },
        {
          "indexed": true,
          "internalType": "uint256",
          "name": "scale",
          "type": "uint256"
        }
      ],
      "name": "RoyaltyDetailsSet",
      "type": "event"
    },
    {
      "anonymous": false,
      "inputs": [
        {
          "indexed": true,
          "internalType": "uint256",
          "name": "tokenId",
          "type": "uint256"
        },
        {
          "indexed": true,
          "internalType": "address",
          "name": "toModify",
          "type": "address"
        },
        {
          "indexed": true,
          "internalType": "bool",
          "name": "isExempt",
          "type": "bool"
        }
      ],
      "name": "RoyaltyExemptionModified",
      "type": "event"
    },
    {
      "anonymous": false,
      "inputs": [
        {
          "indexed": true,
          "internalType": "address",
          "name": "operator",
          "type": "address"
        },
        {
          "indexed": true,
          "internalType": "address",
          "name": "from",
          "type": "address"
        },
        {
          "indexed": true,
          "internalType": "address",
          "name": "to",
          "type": "address"
        },
        {
          "indexed": false,
          "internalType": "uint256[]",
          "name": "ids",
          "type": "uint256[]"
        },
        {
          "indexed": false,
          "internalType": "uint256[]",
          "name": "values",
          "type": "uint256[]"
        }
      ],
      "name": "TransferBatch",
      "type": "event"
    },
    {
      "anonymous": false,
      "inputs": [
        {
          "indexed": true,
          "internalType": "address",
          "name": "operator",
          "type": "address"
        },
        {
          "indexed": true,
          "internalType": "address",
          "name": "from",
          "type": "address"
        },
        {
          "indexed": true,
          "internalType": "address",
          "name": "to",
          "type": "address"
        },
        {
          "indexed": false,
          "internalType": "uint256",
          "name": "id",
          "type": "uint256"
        },
        {
          "indexed": false,
          "internalType": "uint256",
          "name": "value",
          "type": "uint256"
        }
      ],
      "name": "TransferSingle",
      "type": "event"
    },
    {
      "anonymous": false,
      "inputs": [
        {
          "indexed": false,
          "internalType": "string",
          "name": "value",
          "type": "string"
        },
        {
          "indexed": true,
          "internalType": "uint256",
          "name": "id",
          "type": "uint256"
        }
      ],
      "name": "URI",
      "type": "event"
    },
    {
      "anonymous": false,
      "inputs": [
        {
          "indexed": true,
          "internalType": "address",
          "name": "addressSet",
          "type": "address"
        },
        {
          "indexed": true,
          "internalType": "bool",
          "name": "canMint",
          "type": "bool"
        }
      ],
      "name": "WhitelistUpdated",
      "type": "event"
    },
    {
      "inputs": [
        {
          "internalType": "address",
          "name": "account",
          "type": "address"
        },
        {
          "internalType": "uint256",
          "name": "id",
          "type": "uint256"
        }
      ],
      "name": "balanceOf",
      "outputs": [
        {
          "internalType": "uint256",
          "name": "",
          "type": "uint256"
        }
      ],
      "stateMutability": "view",
      "type": "function"
    },
    {
      "inputs": [
        {
          "internalType": "address[]",
          "name": "accounts",
          "type": "address[]"
        },
        {
          "internalType": "uint256[]",
          "name": "ids",
          "type": "uint256[]"
        }
      ],
      "name": "balanceOfBatch",
      "outputs": [
        {
          "internalType": "uint256[]",
          "name": "",
          "type": "uint256[]"
        }
      ],
      "stateMutability": "view",
      "type": "function"
    },
    {
      "inputs": [
        {
          "internalType": "uint256",
          "name": "tokenId",
          "type": "uint256"
        }
      ],
      "name": "getNftProperties",
      "outputs": [
        {
          "components": [
            {
              "internalType": "address",
              "name": "creator",
              "type": "address"
            },
            {
              "internalType": "bool",
              "name": "isRedeemable",
              "type": "bool"
            },
            {
              "internalType": "string",
              "name": "redeemDescrip",
              "type": "string"
            }
          ],
          "internalType": "struct IIndiNFT.Properties",
          "name": "",
          "type": "tuple"
        }
      ],
      "stateMutability": "view",
      "type": "function"
    },
    {
      "inputs": [],
      "name": "getRoyaltyRate",
      "outputs": [
        {
          "internalType": "uint256",
          "name": "",
          "type": "uint256"
        },
        {
          "internalType": "uint256",
          "name": "",
          "type": "uint256"
        }
      ],
      "stateMutability": "view",
      "type": "function"
    },
    {
      "inputs": [
        {
          "internalType": "address",
          "name": "toCheck",
          "type": "address"
        }
      ],
      "name": "getWhitelisted",
      "outputs": [
        {
          "internalType": "bool",
          "name": "",
          "type": "bool"
        }
      ],
      "stateMutability": "view",
      "type": "function"
    },
    {
      "inputs": [
        {
          "internalType": "address",
          "name": "account",
          "type": "address"
        },
        {
          "internalType": "address",
          "name": "operator",
          "type": "address"
        }
      ],
      "name": "isApprovedForAll",
      "outputs": [
        {
          "internalType": "bool",
          "name": "",
          "type": "bool"
        }
      ],
      "stateMutability": "view",
      "type": "function"
    },
    {
      "inputs": [
        {
          "internalType": "uint256",
          "name": "tokenId",
          "type": "uint256"
        },
        {
          "internalType": "address",
          "name": "checkIfExempted",
          "type": "address"
        }
      ],
      "name": "isExemptFromRoyalties",
      "outputs": [
        {
          "internalType": "bool",
          "name": "",
          "type": "bool"
        }
      ],
      "stateMutability": "view",
      "type": "function"
    },
    {
      "inputs": [
        {
          "internalType": "address",
          "name": "account",
          "type": "address"
        },
        {
          "internalType": "uint256",
          "name": "amount",
          "type": "uint256"
        },
        {
          "internalType": "string",
          "name": "uri_",
          "type": "string"
        },
        {
          "internalType": "string",
          "name": "categoryId",
          "type": "string"
        }
      ],
      "name": "mint",
      "outputs": [],
      "stateMutability": "nonpayable",
      "type": "function"
    },
    {
      "inputs": [
        {
          "internalType": "address",
          "name": "to",
          "type": "address"
        },
        {
          "internalType": "uint256[]",
          "name": "amounts",
          "type": "uint256[]"
        },
        {
          "internalType": "string[]",
          "name": "_uris",
          "type": "string[]"
        },
        {
          "internalType": "string[]",
          "name": "_categoryIds",
          "type": "string[]"
        }
      ],
      "name": "mintBatch",
      "outputs": [],
      "stateMutability": "nonpayable",
      "type": "function"
    },
    {
      "inputs": [],
      "name": "owner",
      "outputs": [
        {
          "internalType": "address",
          "name": "",
          "type": "address"
        }
      ],
      "stateMutability": "view",
      "type": "function"
    },
    {
      "inputs": [],
      "name": "renounceOwnership",
      "outputs": [],
      "stateMutability": "nonpayable",
      "type": "function"
    },
    {
      "inputs": [
        {
          "internalType": "uint256",
          "name": "tokenId",
          "type": "uint256"
        },
        {
          "internalType": "uint256",
          "name": "_salePrice",
          "type": "uint256"
        }
      ],
      "name": "royaltyInfo",
      "outputs": [
        {
          "internalType": "address",
          "name": "",
          "type": "address"
        },
        {
          "internalType": "uint256",
          "name": "",
          "type": "uint256"
        }
      ],
      "stateMutability": "view",
      "type": "function"
    },
    {
      "inputs": [
        {
          "internalType": "address",
          "name": "from",
          "type": "address"
        },
        {
          "internalType": "address",
          "name": "to",
          "type": "address"
        },
        {
          "internalType": "uint256[]",
          "name": "ids",
          "type": "uint256[]"
        },
        {
          "internalType": "uint256[]",
          "name": "amounts",
          "type": "uint256[]"
        },
        {
          "internalType": "bytes",
          "name": "data",
          "type": "bytes"
        }
      ],
      "name": "safeBatchTransferFrom",
      "outputs": [],
      "stateMutability": "nonpayable",
      "type": "function"
    },
    {
      "inputs": [
        {
          "internalType": "address",
          "name": "from",
          "type": "address"
        },
        {
          "internalType": "address",
          "name": "to",
          "type": "address"
        },
        {
          "internalType": "uint256",
          "name": "id",
          "type": "uint256"
        },
        {
          "internalType": "uint256",
          "name": "amount",
          "type": "uint256"
        },
        {
          "internalType": "bytes",
          "name": "data",
          "type": "bytes"
        }
      ],
      "name": "safeTransferFrom",
      "outputs": [],
      "stateMutability": "nonpayable",
      "type": "function"
    },
    {
      "inputs": [
        {
          "internalType": "address",
          "name": "operator",
          "type": "address"
        },
        {
          "internalType": "bool",
          "name": "approved",
          "type": "bool"
        }
      ],
      "name": "setApprovalForAll",
      "outputs": [],
      "stateMutability": "nonpayable",
      "type": "function"
    },
    {
      "inputs": [
        {
          "internalType": "uint256",
          "name": "tokenId",
          "type": "uint256"
        },
        {
          "internalType": "string",
          "name": "_description",
          "type": "string"
        },
        {
          "internalType": "bool",
          "name": "_redeemable",
          "type": "bool"
        }
      ],
      "name": "setRedeem",
      "outputs": [],
      "stateMutability": "nonpayable",
      "type": "function"
    },
    {
      "inputs": [
        {
          "internalType": "uint256",
          "name": "_rate",
          "type": "uint256"
        },
        {
          "internalType": "uint256",
          "name": "_scale",
          "type": "uint256"
        }
      ],
      "name": "setRoyalty",
      "outputs": [],
      "stateMutability": "nonpayable",
      "type": "function"
    },
    {
      "inputs": [
        {
          "internalType": "uint256",
          "name": "tokenId",
          "type": "uint256"
        },
        {
          "internalType": "address",
          "name": "toModify",
          "type": "address"
        },
        {
          "internalType": "bool",
          "name": "isExempt",
          "type": "bool"
        }
      ],
      "name": "setRoyaltyExemption",
      "outputs": [],
      "stateMutability": "nonpayable",
      "type": "function"
    },
    {
      "inputs": [
        {
          "internalType": "address",
          "name": "toSet",
          "type": "address"
        },
        {
          "internalType": "bool",
          "name": "canMint",
          "type": "bool"
        }
      ],
      "name": "setWhitelisted",
      "outputs": [],
      "stateMutability": "nonpayable",
      "type": "function"
    },
    {
      "inputs": [
        {
          "internalType": "bytes4",
          "name": "interfaceId",
          "type": "bytes4"
        }
      ],
      "name": "supportsInterface",
      "outputs": [
        {
          "internalType": "bool",
          "name": "",
          "type": "bool"
        }
      ],
      "stateMutability": "view",
      "type": "function"
    },
    {
      "inputs": [
        {
          "internalType": "address",
          "name": "newOwner",
          "type": "address"
        }
      ],
      "name": "transferOwnership",
      "outputs": [],
      "stateMutability": "nonpayable",
      "type": "function"
    },
    {
      "inputs": [
        {
          "internalType": "uint256",
          "name": "tokenId",
          "type": "uint256"
        }
      ],
      "name": "uri",
      "outputs": [
        {
          "internalType": "string",
          "name": "",
          "type": "string"
        }
      ],
      "stateMutability": "view",
      "type": "function"
    }
  ],
  "bytecode": "0x60806040526101f46007556127106008553480156200001d57600080fd5b50600680546200002d906200042d565b80601f01602080910402602001604051908101604052809291908181526020018280546200005b906200042d565b8015620000ac5780601f106200008057610100808354040283529160200191620000ac565b820191906000526020600020905b8154815290600101906020018083116200008e57829003601f168201915b5050505050620000c2816200018b60201b60201c565b50620000e3620000d7620001a760201b60201c565b620001af60201b60201c565b620001197f2a55205a000000000000000000000000000000000000000000000000000000006200027560201b62001c391760201c565b6200014f7fd9b67a26000000000000000000000000000000000000000000000000000000006200027560201b62001c391760201c565b620001857f0e89341c000000000000000000000000000000000000000000000000000000006200027560201b62001c391760201c565b620004e6565b8060029080519060200190620001a39291906200034e565b5050565b600033905090565b6000600460009054906101000a900473ffffffffffffffffffffffffffffffffffffffff16905081600460006101000a81548173ffffffffffffffffffffffffffffffffffffffff021916908373ffffffffffffffffffffffffffffffffffffffff1602179055508173ffffffffffffffffffffffffffffffffffffffff168173ffffffffffffffffffffffffffffffffffffffff167f8be0079c531659141344cd1fd0a4f28419497f9722a3daafe3b4186f6b6457e060405160405180910390a35050565b63ffffffff60e01b817bffffffffffffffffffffffffffffffffffffffffffffffffffffffff19161415620002e1576040517f08c379a0000000000000000000000000000000000000000000000000000000008152600401620002d890620004c4565b60405180910390fd5b600160036000837bffffffffffffffffffffffffffffffffffffffffffffffffffffffff19167bffffffffffffffffffffffffffffffffffffffffffffffffffffffff1916815260200190815260200160002060006101000a81548160ff02191690831515021790555050565b8280546200035c906200042d565b90600052602060002090601f016020900481019282620003805760008555620003cc565b82601f106200039b57805160ff1916838001178555620003cc565b82800160010185558215620003cc579182015b82811115620003cb578251825591602001919060010190620003ae565b5b509050620003db9190620003df565b5090565b5b80821115620003fa576000816000905550600101620003e0565b5090565b7f4e487b7100000000000000000000000000000000000000000000000000000000600052602260045260246000fd5b600060028204905060018216806200044657607f821691505b602082108114156200045d576200045c620003fe565b5b50919050565b600082825260208201905092915050565b7f4552433136353a20696e76616c696420696e7465726661636520696400000000600082015250565b6000620004ac601c8362000463565b9150620004b98262000474565b602082019050919050565b60006020820190508181036000830152620004df816200049d565b9050919050565b614df880620004f66000396000f3fe608060405234801561001057600080fd5b50600436106101415760003560e01c80634e1273f4116100b85780639281aa0b1161007c5780639281aa0b1461039a578063933a6f0d146103b6578063a22cb465146103d2578063e985e9c5146103ee578063f242432a1461041e578063f2fde38b1461043a57610141565b80634e1273f414610307578063715018a61461033757806386cca6f8146103415780638b4730a9146103605780638da5cb5b1461037c57610141565b80632a55205a1161010a5780632a55205a1461020e5780632eb2c2d61461023f5780632fb102cf1461025b5780633f18064a146102775780634203cc1a146102a75780634518ac09146102d757610141565b8062fdd58e146101465780630157bfb51461017657806301ffc9a7146101925780630e89341c146101c25780631cc25576146101f2575b600080fd5b610160600480360381019061015b9190612f3c565b610456565b60405161016d9190612f8b565b60405180910390f35b610190600480360381019061018b9190612fde565b61051f565b005b6101ac60048036038101906101a79190613089565b6107c5565b6040516101b991906130c5565b60405180910390f35b6101dc60048036038101906101d791906130e0565b6107d7565b6040516101e991906131a6565b60405180910390f35b61020c600480360381019061020791906132fd565b6108cd565b005b6102286004803603810190610223919061336c565b610a5d565b6040516102369291906133bb565b60405180910390f35b6102596004803603810190610254919061354d565b610ac3565b005b6102756004803603810190610270919061361c565b610b64565b005b610291600480360381019061028c91906136bb565b610da5565b60405161029e91906130c5565b60405180910390f35b6102c160048036038101906102bc91906130e0565b610e38565b6040516102ce91906137a0565b60405180910390f35b6102f160048036038101906102ec91906137c2565b610f68565b6040516102fe91906130c5565b60405180910390f35b610321600480360381019061031c91906138c5565b610fd0565b60405161032e91906139fb565b60405180910390f35b61033f6110e9565b005b610349611171565b604051610357929190613a1d565b60405180910390f35b61037a60048036038101906103759190613b27565b611182565b005b610384611552565b6040516103919190613be2565b60405180910390f35b6103b460048036038101906103af9190613bfd565b61157c565b005b6103d060048036038101906103cb919061336c565b6117cf565b005b6103ec60048036038101906103e79190613bfd565b61188b565b005b61040860048036038101906104039190613c3d565b611a0c565b60405161041591906130c5565b60405180910390f35b61043860048036038101906104339190613c7d565b611aa0565b005b610454600480360381019061044f91906136bb565b611b41565b005b60008073ffffffffffffffffffffffffffffffffffffffff168373ffffffffffffffffffffffffffffffffffffffff1614156104c7576040517f08c379a00000000000000000000000000000000000000000000000000000000081526004016104be90613d86565b60405180910390fd5b60008083815260200190815260200160002060008473ffffffffffffffffffffffffffffffffffffffff1673ffffffffffffffffffffffffffffffffffffffff16815260200190815260200160002054905092915050565b600a600084815260200190815260200160002060000160009054906101000a900473ffffffffffffffffffffffffffffffffffffffff1673ffffffffffffffffffffffffffffffffffffffff16610574611d0f565b73ffffffffffffffffffffffffffffffffffffffff16146105ca576040517f08c379a00000000000000000000000000000000000000000000000000000000081526004016105c190613df2565b60405180910390fd5b600b600084815260200190815260200160002060008373ffffffffffffffffffffffffffffffffffffffff1673ffffffffffffffffffffffffffffffffffffffff16815260200190815260200160002060009054906101000a900460ff1615158115151415610711576000600115158215151461067c576040518060400160405280600581526020017f66616c73650000000000000000000000000000000000000000000000000000008152506106b3565b6040518060400160405280600481526020017f74727565000000000000000000000000000000000000000000000000000000008152505b9050806040516020016106c69190613e9a565b6040516020818303038152906040526040517f08c379a000000000000000000000000000000000000000000000000000000000815260040161070891906131a6565b60405180910390fd5b80600b600085815260200190815260200160002060008473ffffffffffffffffffffffffffffffffffffffff1673ffffffffffffffffffffffffffffffffffffffff16815260200190815260200160002060006101000a81548160ff0219169083151502179055508015158273ffffffffffffffffffffffffffffffffffffffff16847fc78045b732d65d4920a9f57c1e57ce858ad41ff9e66b2fc297f8eb3789b1b6c960405160405180910390a4505050565b60006107d082611d17565b9050919050565b60606000600680546107e890613eeb565b9050116108905760096000838152602001908152602001600020805461080d90613eeb565b80601f016020809104026020016040519081016040528092919081815260200182805461083990613eeb565b80156108865780601f1061085b57610100808354040283529160200191610886565b820191906000526020600020905b81548152906001019060200180831161086957829003601f168201915b50505050506108c6565b6006600960008481526020019081526020016000206040516020016108b6929190613ffd565b6040516020818303038152906040525b9050919050565b6108d5611552565b73ffffffffffffffffffffffffffffffffffffffff163373ffffffffffffffffffffffffffffffffffffffff16148061096f5750600a600084815260200190815260200160002060000160009054906101000a900473ffffffffffffffffffffffffffffffffffffffff1673ffffffffffffffffffffffffffffffffffffffff163373ffffffffffffffffffffffffffffffffffffffff16145b6109ae576040517f08c379a00000000000000000000000000000000000000000000000000000000081526004016109a590614078565b60405180910390fd5b80600a600085815260200190815260200160002060000160146101000a81548160ff021916908315150217905550600082511115610a125781600a60008581526020019081526020016000206001019080519060200190610a10929190612db8565b505b81604051610a209190614098565b6040518091039020811515847f4a771f258fd6038978ac942516f1fb69f8b3522d8aeaf57623c780bb5d08aa4b60405160405180910390a4505050565b600080600060085460075485610a7391906140de565b610a7d9190614167565b9050600a600086815260200190815260200160002060000160009054906101000a900473ffffffffffffffffffffffffffffffffffffffff168192509250509250929050565b610acb611d0f565b73ffffffffffffffffffffffffffffffffffffffff168573ffffffffffffffffffffffffffffffffffffffff161480610b115750610b1085610b0b611d0f565b611a0c565b5b610b50576040517f08c379a0000000000000000000000000000000000000000000000000000000008152600401610b479061420a565b60405180910390fd5b610b5d8585858585611d8f565b5050505050565b600c60003373ffffffffffffffffffffffffffffffffffffffff1673ffffffffffffffffffffffffffffffffffffffff16815260200190815260200160002060009054906101000a900460ff1680610bee5750610bbf611552565b73ffffffffffffffffffffffffffffffffffffffff163373ffffffffffffffffffffffffffffffffffffffff16145b610c2d576040517f08c379a0000000000000000000000000000000000000000000000000000000008152600401610c2490614276565b60405180910390fd5b610c3760056120a3565b6000610c4360056120b9565b9050600073ffffffffffffffffffffffffffffffffffffffff16600a600083815260200190815260200160002060000160009054906101000a900473ffffffffffffffffffffffffffffffffffffffff1673ffffffffffffffffffffffffffffffffffffffff1614610cea576040517f08c379a0000000000000000000000000000000000000000000000000000000008152600401610ce1906142e2565b60405180910390fd5b610d05858286604051806020016040528060008152506120c7565b33600a600083815260200190815260200160002060000160006101000a81548173ffffffffffffffffffffffffffffffffffffffff021916908373ffffffffffffffffffffffffffffffffffffffff160217905550610d64818461225d565b807f1d61796966337785456d2fcf964c7b12fd15d17707321421673a4617e48995de8385604051610d96929190614302565b60405180910390a25050505050565b6000600c60008373ffffffffffffffffffffffffffffffffffffffff1673ffffffffffffffffffffffffffffffffffffffff16815260200190815260200160002060009054906101000a900460ff1680610e315750610e02611552565b73ffffffffffffffffffffffffffffffffffffffff168273ffffffffffffffffffffffffffffffffffffffff16145b9050919050565b610e40612e3e565b600a60008381526020019081526020016000206040518060600160405290816000820160009054906101000a900473ffffffffffffffffffffffffffffffffffffffff1673ffffffffffffffffffffffffffffffffffffffff1673ffffffffffffffffffffffffffffffffffffffff1681526020016000820160149054906101000a900460ff16151515158152602001600182018054610edf90613eeb565b80601f0160208091040260200160405190810160405280929190818152602001828054610f0b90613eeb565b8015610f585780601f10610f2d57610100808354040283529160200191610f58565b820191906000526020600020905b815481529060010190602001808311610f3b57829003601f168201915b5050505050815250509050919050565b6000600b600084815260200190815260200160002060008373ffffffffffffffffffffffffffffffffffffffff1673ffffffffffffffffffffffffffffffffffffffff16815260200190815260200160002060009054906101000a900460ff16905092915050565b60608151835114611016576040517f08c379a000000000000000000000000000000000000000000000000000000000815260040161100d906143ab565b60405180910390fd5b6000835167ffffffffffffffff811115611033576110326131d2565b5b6040519080825280602002602001820160405280156110615781602001602082028036833780820191505090505b50905060005b84518110156110de576110ae858281518110611086576110856143cb565b5b60200260200101518583815181106110a1576110a06143cb565b5b6020026020010151610456565b8282815181106110c1576110c06143cb565b5b602002602001018181525050806110d7906143fa565b9050611067565b508091505092915050565b6110f1611d0f565b73ffffffffffffffffffffffffffffffffffffffff1661110f611552565b73ffffffffffffffffffffffffffffffffffffffff1614611165576040517f08c379a000000000000000000000000000000000000000000000000000000000815260040161115c9061448f565b60405180910390fd5b61116f60006122c1565b565b600080600754600854915091509091565b600c60003373ffffffffffffffffffffffffffffffffffffffff1673ffffffffffffffffffffffffffffffffffffffff16815260200190815260200160002060009054906101000a900460ff168061120c57506111dd611552565b73ffffffffffffffffffffffffffffffffffffffff163373ffffffffffffffffffffffffffffffffffffffff16145b61124b576040517f08c379a000000000000000000000000000000000000000000000000000000000815260040161124290614276565b60405180910390fd5b815183511461128f576040517f08c379a0000000000000000000000000000000000000000000000000000000008152600401611286906144fb565b60405180910390fd5b6000835167ffffffffffffffff8111156112ac576112ab6131d2565b5b6040519080825280602002602001820160405280156112da5781602001602082028036833780820191505090505b50905060005b84518110156113da576112f360056120a3565b60006112ff60056120b9565b9050600073ffffffffffffffffffffffffffffffffffffffff16600a600083815260200190815260200160002060000160009054906101000a900473ffffffffffffffffffffffffffffffffffffffff1673ffffffffffffffffffffffffffffffffffffffff16146113a6576040517f08c379a000000000000000000000000000000000000000000000000000000000815260040161139d906142e2565b60405180910390fd5b808383815181106113ba576113b96143cb565b5b6020026020010181815250505080806113d2906143fa565b9150506112e0565b506113f685828660405180602001604052806000815250612387565b60005b845181101561154a5733600a600084848151811061141a576114196143cb565b5b6020026020010151815260200190815260200160002060000160006101000a81548173ffffffffffffffffffffffffffffffffffffffff021916908373ffffffffffffffffffffffffffffffffffffffff1602179055506114af828281518110611487576114866143cb565b5b60200260200101518583815181106114a2576114a16143cb565b5b602002602001015161225d565b8181815181106114c2576114c16143cb565b5b60200260200101517f1d61796966337785456d2fcf964c7b12fd15d17707321421673a4617e48995de8483815181106114fe576114fd6143cb565b5b6020026020010151868481518110611519576115186143cb565b5b602002602001015160405161152f929190614302565b60405180910390a28080611542906143fa565b9150506113f9565b505050505050565b6000600460009054906101000a900473ffffffffffffffffffffffffffffffffffffffff16905090565b611584611d0f565b73ffffffffffffffffffffffffffffffffffffffff166115a2611552565b73ffffffffffffffffffffffffffffffffffffffff16146115f8576040517f08c379a00000000000000000000000000000000000000000000000000000000081526004016115ef9061448f565b60405180910390fd5b600c60008373ffffffffffffffffffffffffffffffffffffffff1673ffffffffffffffffffffffffffffffffffffffff16815260200190815260200160002060009054906101000a900460ff161515811515141561172e5760006001151582151514611699576040518060400160405280600581526020017f66616c73650000000000000000000000000000000000000000000000000000008152506116d0565b6040518060400160405280600481526020017f74727565000000000000000000000000000000000000000000000000000000008152505b9050806040516020016116e39190614567565b6040516020818303038152906040526040517f08c379a000000000000000000000000000000000000000000000000000000000815260040161172591906131a6565b60405180910390fd5b80600c60008473ffffffffffffffffffffffffffffffffffffffff1673ffffffffffffffffffffffffffffffffffffffff16815260200190815260200160002060006101000a81548160ff0219169083151502179055508015158273ffffffffffffffffffffffffffffffffffffffff167ff93f9a76c1bf3444d22400a00cb9fe990e6abe9dbb333fda48859cfee864543d60405160405180910390a35050565b6117d7611d0f565b73ffffffffffffffffffffffffffffffffffffffff166117f5611552565b73ffffffffffffffffffffffffffffffffffffffff161461184b576040517f08c379a00000000000000000000000000000000000000000000000000000000081526004016118429061448f565b60405180910390fd5b816007819055508060088190555080827f56bf42987c99e7136d52833b6da80748e482cc10ec4e5803a49152bf9c438f4b60405160405180910390a35050565b8173ffffffffffffffffffffffffffffffffffffffff166118aa611d0f565b73ffffffffffffffffffffffffffffffffffffffff161415611901576040517f08c379a00000000000000000000000000000000000000000000000000000000081526004016118f8906145fb565b60405180910390fd5b806001600061190e611d0f565b73ffffffffffffffffffffffffffffffffffffffff1673ffffffffffffffffffffffffffffffffffffffff16815260200190815260200160002060008473ffffffffffffffffffffffffffffffffffffffff1673ffffffffffffffffffffffffffffffffffffffff16815260200190815260200160002060006101000a81548160ff0219169083151502179055508173ffffffffffffffffffffffffffffffffffffffff166119bb611d0f565b73ffffffffffffffffffffffffffffffffffffffff167f17307eab39ab6107e8899845ad3d59bd9653f200f220920489ca2b5937696c3183604051611a0091906130c5565b60405180910390a35050565b6000600160008473ffffffffffffffffffffffffffffffffffffffff1673ffffffffffffffffffffffffffffffffffffffff16815260200190815260200160002060008373ffffffffffffffffffffffffffffffffffffffff1673ffffffffffffffffffffffffffffffffffffffff16815260200190815260200160002060009054906101000a900460ff16905092915050565b611aa8611d0f565b73ffffffffffffffffffffffffffffffffffffffff168573ffffffffffffffffffffffffffffffffffffffff161480611aee5750611aed85611ae8611d0f565b611a0c565b5b611b2d576040517f08c379a0000000000000000000000000000000000000000000000000000000008152600401611b249061468d565b60405180910390fd5b611b3a85858585856125a5565b5050505050565b611b49611d0f565b73ffffffffffffffffffffffffffffffffffffffff16611b67611552565b73ffffffffffffffffffffffffffffffffffffffff1614611bbd576040517f08c379a0000000000000000000000000000000000000000000000000000000008152600401611bb49061448f565b60405180910390fd5b600073ffffffffffffffffffffffffffffffffffffffff168173ffffffffffffffffffffffffffffffffffffffff161415611c2d576040517f08c379a0000000000000000000000000000000000000000000000000000000008152600401611c249061471f565b60405180910390fd5b611c36816122c1565b50565b63ffffffff60e01b817bffffffffffffffffffffffffffffffffffffffffffffffffffffffff19161415611ca2576040517f08c379a0000000000000000000000000000000000000000000000000000000008152600401611c999061478b565b60405180910390fd5b600160036000837bffffffffffffffffffffffffffffffffffffffffffffffffffffffff19167bffffffffffffffffffffffffffffffffffffffffffffffffffffffff1916815260200190815260200160002060006101000a81548160ff02191690831515021790555050565b600033905090565b6000611d2282612827565b80611d88575060036000837bffffffffffffffffffffffffffffffffffffffffffffffffffffffff19167bffffffffffffffffffffffffffffffffffffffffffffffffffffffff1916815260200190815260200160002060009054906101000a900460ff165b9050919050565b8151835114611dd3576040517f08c379a0000000000000000000000000000000000000000000000000000000008152600401611dca9061481d565b60405180910390fd5b600073ffffffffffffffffffffffffffffffffffffffff168473ffffffffffffffffffffffffffffffffffffffff161415611e43576040517f08c379a0000000000000000000000000000000000000000000000000000000008152600401611e3a906148af565b60405180910390fd5b6000611e4d611d0f565b9050611e5d818787878787612909565b60005b845181101561200e576000858281518110611e7e57611e7d6143cb565b5b602002602001015190506000858381518110611e9d57611e9c6143cb565b5b60200260200101519050600080600084815260200190815260200160002060008b73ffffffffffffffffffffffffffffffffffffffff1673ffffffffffffffffffffffffffffffffffffffff16815260200190815260200160002054905081811015611f3e576040517f08c379a0000000000000000000000000000000000000000000000000000000008152600401611f3590614941565b60405180910390fd5b81810360008085815260200190815260200160002060008c73ffffffffffffffffffffffffffffffffffffffff1673ffffffffffffffffffffffffffffffffffffffff168152602001908152602001600020819055508160008085815260200190815260200160002060008b73ffffffffffffffffffffffffffffffffffffffff1673ffffffffffffffffffffffffffffffffffffffff1681526020019081526020016000206000828254611ff39190614961565b9250508190555050505080612007906143fa565b9050611e60565b508473ffffffffffffffffffffffffffffffffffffffff168673ffffffffffffffffffffffffffffffffffffffff168273ffffffffffffffffffffffffffffffffffffffff167f4a39dc06d4c0dbc64b70af90fd698a233a518aa5d07e595d983b8c0526c8f7fb87876040516120859291906149b7565b60405180910390a461209b818787878787612911565b505050505050565b6001816000016000828254019250508190555050565b600081600001549050919050565b600073ffffffffffffffffffffffffffffffffffffffff168473ffffffffffffffffffffffffffffffffffffffff161415612137576040517f08c379a000000000000000000000000000000000000000000000000000000000815260040161212e90614a60565b60405180910390fd5b6000612141611d0f565b90506121628160008761215388612ae9565b61215c88612ae9565b87612909565b8260008086815260200190815260200160002060008773ffffffffffffffffffffffffffffffffffffffff1673ffffffffffffffffffffffffffffffffffffffff16815260200190815260200160002060008282546121c19190614961565b925050819055508473ffffffffffffffffffffffffffffffffffffffff16600073ffffffffffffffffffffffffffffffffffffffff168273ffffffffffffffffffffffffffffffffffffffff167fc3d58168c5ae7397731d063d5bbf3d657854427343f4c083240f7aacaa2d0f62878760405161223f929190613a1d565b60405180910390a461225681600087878787612b63565b5050505050565b80600960008481526020019081526020016000209080519060200190612284929190612db8565b50817f6bb7ff708619ba0610cba295a58592e0451dee2622938c8755667688daf3529b826040516122b591906131a6565b60405180910390a25050565b6000600460009054906101000a900473ffffffffffffffffffffffffffffffffffffffff16905081600460006101000a81548173ffffffffffffffffffffffffffffffffffffffff021916908373ffffffffffffffffffffffffffffffffffffffff1602179055508173ffffffffffffffffffffffffffffffffffffffff168173ffffffffffffffffffffffffffffffffffffffff167f8be0079c531659141344cd1fd0a4f28419497f9722a3daafe3b4186f6b6457e060405160405180910390a35050565b600073ffffffffffffffffffffffffffffffffffffffff168473ffffffffffffffffffffffffffffffffffffffff1614156123f7576040517f08c379a00000000000000000000000000000000000000000000000000000000081526004016123ee90614a60565b60405180910390fd5b815183511461243b576040517f08c379a00000000000000000000000000000000000000000000000000000000081526004016124329061481d565b60405180910390fd5b6000612445611d0f565b905061245681600087878787612909565b60005b845181101561250f57838181518110612475576124746143cb565b5b6020026020010151600080878481518110612493576124926143cb565b5b6020026020010151815260200190815260200160002060008873ffffffffffffffffffffffffffffffffffffffff1673ffffffffffffffffffffffffffffffffffffffff16815260200190815260200160002060008282546124f59190614961565b925050819055508080612507906143fa565b915050612459565b508473ffffffffffffffffffffffffffffffffffffffff16600073ffffffffffffffffffffffffffffffffffffffff168273ffffffffffffffffffffffffffffffffffffffff167f4a39dc06d4c0dbc64b70af90fd698a233a518aa5d07e595d983b8c0526c8f7fb87876040516125879291906149b7565b60405180910390a461259e81600087878787612911565b5050505050565b600073ffffffffffffffffffffffffffffffffffffffff168473ffffffffffffffffffffffffffffffffffffffff161415612615576040517f08c379a000000000000000000000000000000000000000000000000000000000815260040161260c906148af565b60405180910390fd5b600061261f611d0f565b905061263f81878761263088612ae9565b61263988612ae9565b87612909565b600080600086815260200190815260200160002060008873ffffffffffffffffffffffffffffffffffffffff1673ffffffffffffffffffffffffffffffffffffffff168152602001908152602001600020549050838110156126d6576040517f08c379a00000000000000000000000000000000000000000000000000000000081526004016126cd90614941565b60405180910390fd5b83810360008087815260200190815260200160002060008973ffffffffffffffffffffffffffffffffffffffff1673ffffffffffffffffffffffffffffffffffffffff168152602001908152602001600020819055508360008087815260200190815260200160002060008873ffffffffffffffffffffffffffffffffffffffff1673ffffffffffffffffffffffffffffffffffffffff168152602001908152602001600020600082825461278b9190614961565b925050819055508573ffffffffffffffffffffffffffffffffffffffff168773ffffffffffffffffffffffffffffffffffffffff168373ffffffffffffffffffffffffffffffffffffffff167fc3d58168c5ae7397731d063d5bbf3d657854427343f4c083240f7aacaa2d0f628888604051612808929190613a1d565b60405180910390a461281e828888888888612b63565b50505050505050565b60007fd9b67a26000000000000000000000000000000000000000000000000000000007bffffffffffffffffffffffffffffffffffffffffffffffffffffffff1916827bffffffffffffffffffffffffffffffffffffffffffffffffffffffff191614806128f257507f0e89341c000000000000000000000000000000000000000000000000000000007bffffffffffffffffffffffffffffffffffffffffffffffffffffffff1916827bffffffffffffffffffffffffffffffffffffffffffffffffffffffff1916145b80612902575061290182612d3b565b5b9050919050565b505050505050565b6129308473ffffffffffffffffffffffffffffffffffffffff16612da5565b15612ae1578373ffffffffffffffffffffffffffffffffffffffff1663bc197c8187878686866040518663ffffffff1660e01b8152600401612976959493929190614ad5565b6020604051808303816000875af19250505080156129b257506040513d601f19601f820116820180604052508101906129af9190614b52565b60015b612a58576129be614b8c565b806308c379a01415612a1b57506129d3614bae565b806129de5750612a1d565b806040517f08c379a0000000000000000000000000000000000000000000000000000000008152600401612a1291906131a6565b60405180910390fd5b505b6040517f08c379a0000000000000000000000000000000000000000000000000000000008152600401612a4f90614cb6565b60405180910390fd5b63bc197c8160e01b7bffffffffffffffffffffffffffffffffffffffffffffffffffffffff1916817bffffffffffffffffffffffffffffffffffffffffffffffffffffffff191614612adf576040517f08c379a0000000000000000000000000000000000000000000000000000000008152600401612ad690614d48565b60405180910390fd5b505b505050505050565b60606000600167ffffffffffffffff811115612b0857612b076131d2565b5b604051908082528060200260200182016040528015612b365781602001602082028036833780820191505090505b5090508281600081518110612b4e57612b4d6143cb565b5b60200260200101818152505080915050919050565b612b828473ffffffffffffffffffffffffffffffffffffffff16612da5565b15612d33578373ffffffffffffffffffffffffffffffffffffffff1663f23a6e6187878686866040518663ffffffff1660e01b8152600401612bc8959493929190614d68565b6020604051808303816000875af1925050508015612c0457506040513d601f19601f82011682018060405250810190612c019190614b52565b60015b612caa57612c10614b8c565b806308c379a01415612c6d5750612c25614bae565b80612c305750612c6f565b806040517f08c379a0000000000000000000000000000000000000000000000000000000008152600401612c6491906131a6565b60405180910390fd5b505b6040517f08c379a0000000000000000000000000000000000000000000000000000000008152600401612ca190614cb6565b60405180910390fd5b63f23a6e6160e01b7bffffffffffffffffffffffffffffffffffffffffffffffffffffffff1916817bffffffffffffffffffffffffffffffffffffffffffffffffffffffff191614612d31576040517f08c379a0000000000000000000000000000000000000000000000000000000008152600401612d2890614d48565b60405180910390fd5b505b505050505050565b60007f01ffc9a7000000000000000000000000000000000000000000000000000000007bffffffffffffffffffffffffffffffffffffffffffffffffffffffff1916827bffffffffffffffffffffffffffffffffffffffffffffffffffffffff1916149050919050565b600080823b905060008111915050919050565b828054612dc490613eeb565b90600052602060002090601f016020900481019282612de65760008555612e2d565b82601f10612dff57805160ff1916838001178555612e2d565b82800160010185558215612e2d579182015b82811115612e2c578251825591602001919060010190612e11565b5b509050612e3a9190612e77565b5090565b6040518060600160405280600073ffffffffffffffffffffffffffffffffffffffff168152602001600015158152602001606081525090565b5b80821115612e90576000816000905550600101612e78565b5090565b6000604051905090565b600080fd5b600080fd5b600073ffffffffffffffffffffffffffffffffffffffff82169050919050565b6000612ed382612ea8565b9050919050565b612ee381612ec8565b8114612eee57600080fd5b50565b600081359050612f0081612eda565b92915050565b6000819050919050565b612f1981612f06565b8114612f2457600080fd5b50565b600081359050612f3681612f10565b92915050565b60008060408385031215612f5357612f52612e9e565b5b6000612f6185828601612ef1565b9250506020612f7285828601612f27565b9150509250929050565b612f8581612f06565b82525050565b6000602082019050612fa06000830184612f7c565b92915050565b60008115159050919050565b612fbb81612fa6565b8114612fc657600080fd5b50565b600081359050612fd881612fb2565b92915050565b600080600060608486031215612ff757612ff6612e9e565b5b600061300586828701612f27565b935050602061301686828701612ef1565b925050604061302786828701612fc9565b9150509250925092565b60007fffffffff0000000000000000000000000000000000000000000000000000000082169050919050565b61306681613031565b811461307157600080fd5b50565b6000813590506130838161305d565b92915050565b60006020828403121561309f5761309e612e9e565b5b60006130ad84828501613074565b91505092915050565b6130bf81612fa6565b82525050565b60006020820190506130da60008301846130b6565b92915050565b6000602082840312156130f6576130f5612e9e565b5b600061310484828501612f27565b91505092915050565b600081519050919050565b600082825260208201905092915050565b60005b8381101561314757808201518184015260208101905061312c565b83811115613156576000848401525b50505050565b6000601f19601f8301169050919050565b60006131788261310d565b6131828185613118565b9350613192818560208601613129565b61319b8161315c565b840191505092915050565b600060208201905081810360008301526131c0818461316d565b905092915050565b600080fd5b600080fd5b7f4e487b7100000000000000000000000000000000000000000000000000000000600052604160045260246000fd5b61320a8261315c565b810181811067ffffffffffffffff82111715613229576132286131d2565b5b80604052505050565b600061323c612e94565b90506132488282613201565b919050565b600067ffffffffffffffff821115613268576132676131d2565b5b6132718261315c565b9050602081019050919050565b82818337600083830152505050565b60006132a061329b8461324d565b613232565b9050828152602081018484840111156132bc576132bb6131cd565b5b6132c784828561327e565b509392505050565b600082601f8301126132e4576132e36131c8565b5b81356132f484826020860161328d565b91505092915050565b60008060006060848603121561331657613315612e9e565b5b600061332486828701612f27565b935050602084013567ffffffffffffffff81111561334557613344612ea3565b5b613351868287016132cf565b925050604061336286828701612fc9565b9150509250925092565b6000806040838503121561338357613382612e9e565b5b600061339185828601612f27565b92505060206133a285828601612f27565b9150509250929050565b6133b581612ec8565b82525050565b60006040820190506133d060008301856133ac565b6133dd6020830184612f7c565b9392505050565b600067ffffffffffffffff8211156133ff576133fe6131d2565b5b602082029050602081019050919050565b600080fd5b6000613428613423846133e4565b613232565b9050808382526020820190506020840283018581111561344b5761344a613410565b5b835b8181101561347457806134608882612f27565b84526020840193505060208101905061344d565b5050509392505050565b600082601f830112613493576134926131c8565b5b81356134a3848260208601613415565b91505092915050565b600067ffffffffffffffff8211156134c7576134c66131d2565b5b6134d08261315c565b9050602081019050919050565b60006134f06134eb846134ac565b613232565b90508281526020810184848401111561350c5761350b6131cd565b5b61351784828561327e565b509392505050565b600082601f830112613534576135336131c8565b5b81356135448482602086016134dd565b91505092915050565b600080600080600060a0868803121561356957613568612e9e565b5b600061357788828901612ef1565b955050602061358888828901612ef1565b945050604086013567ffffffffffffffff8111156135a9576135a8612ea3565b5b6135b58882890161347e565b935050606086013567ffffffffffffffff8111156135d6576135d5612ea3565b5b6135e28882890161347e565b925050608086013567ffffffffffffffff81111561360357613602612ea3565b5b61360f8882890161351f565b9150509295509295909350565b6000806000806080858703121561363657613635612e9e565b5b600061364487828801612ef1565b945050602061365587828801612f27565b935050604085013567ffffffffffffffff81111561367657613675612ea3565b5b613682878288016132cf565b925050606085013567ffffffffffffffff8111156136a3576136a2612ea3565b5b6136af878288016132cf565b91505092959194509250565b6000602082840312156136d1576136d0612e9e565b5b60006136df84828501612ef1565b91505092915050565b6136f181612ec8565b82525050565b61370081612fa6565b82525050565b600082825260208201905092915050565b60006137228261310d565b61372c8185613706565b935061373c818560208601613129565b6137458161315c565b840191505092915050565b600060608301600083015161376860008601826136e8565b50602083015161377b60208601826136f7565b50604083015184820360408601526137938282613717565b9150508091505092915050565b600060208201905081810360008301526137ba8184613750565b905092915050565b600080604083850312156137d9576137d8612e9e565b5b60006137e785828601612f27565b92505060206137f885828601612ef1565b9150509250929050565b600067ffffffffffffffff82111561381d5761381c6131d2565b5b602082029050602081019050919050565b600061384161383c84613802565b613232565b9050808382526020820190506020840283018581111561386457613863613410565b5b835b8181101561388d57806138798882612ef1565b845260208401935050602081019050613866565b5050509392505050565b600082601f8301126138ac576138ab6131c8565b5b81356138bc84826020860161382e565b91505092915050565b600080604083850312156138dc576138db612e9e565b5b600083013567ffffffffffffffff8111156138fa576138f9612ea3565b5b61390685828601613897565b925050602083013567ffffffffffffffff81111561392757613926612ea3565b5b6139338582860161347e565b9150509250929050565b600081519050919050565b600082825260208201905092915050565b6000819050602082019050919050565b61397281612f06565b82525050565b60006139848383613969565b60208301905092915050565b6000602082019050919050565b60006139a88261393d565b6139b28185613948565b93506139bd83613959565b8060005b838110156139ee5781516139d58882613978565b97506139e083613990565b9250506001810190506139c1565b5085935050505092915050565b60006020820190508181036000830152613a15818461399d565b905092915050565b6000604082019050613a326000830185612f7c565b613a3f6020830184612f7c565b9392505050565b600067ffffffffffffffff821115613a6157613a606131d2565b5b602082029050602081019050919050565b6000613a85613a8084613a46565b613232565b90508083825260208201905060208402830185811115613aa857613aa7613410565b5b835b81811015613aef57803567ffffffffffffffff811115613acd57613acc6131c8565b5b808601613ada89826132cf565b85526020850194505050602081019050613aaa565b5050509392505050565b600082601f830112613b0e57613b0d6131c8565b5b8135613b1e848260208601613a72565b91505092915050565b60008060008060808587031215613b4157613b40612e9e565b5b6000613b4f87828801612ef1565b945050602085013567ffffffffffffffff811115613b7057613b6f612ea3565b5b613b7c8782880161347e565b935050604085013567ffffffffffffffff811115613b9d57613b9c612ea3565b5b613ba987828801613af9565b925050606085013567ffffffffffffffff811115613bca57613bc9612ea3565b5b613bd687828801613af9565b91505092959194509250565b6000602082019050613bf760008301846133ac565b92915050565b60008060408385031215613c1457613c13612e9e565b5b6000613c2285828601612ef1565b9250506020613c3385828601612fc9565b9150509250929050565b60008060408385031215613c5457613c53612e9e565b5b6000613c6285828601612ef1565b9250506020613c7385828601612ef1565b9150509250929050565b600080600080600060a08688031215613c9957613c98612e9e565b5b6000613ca788828901612ef1565b9550506020613cb888828901612ef1565b9450506040613cc988828901612f27565b9350506060613cda88828901612f27565b925050608086013567ffffffffffffffff811115613cfb57613cfa612ea3565b5b613d078882890161351f565b9150509295509295909350565b7f455243313135353a2062616c616e636520717565727920666f7220746865207a60008201527f65726f2061646472657373000000000000000000000000000000000000000000602082015250565b6000613d70602b83613118565b9150613d7b82613d14565b604082019050919050565b60006020820190508181036000830152613d9f81613d63565b9050919050565b7f4e46543a206f6e6c79204e46542063726561746f720000000000000000000000600082015250565b6000613ddc601583613118565b9150613de782613da6565b602082019050919050565b60006020820190508181036000830152613e0b81613dcf565b9050919050565b600081905092915050565b7f726f79616c74792073746174757320697320616c726561647920000000000000600082015250565b6000613e53601a83613e12565b9150613e5e82613e1d565b601a82019050919050565b6000613e748261310d565b613e7e8185613e12565b9350613e8e818560208601613129565b80840191505092915050565b6000613ea582613e46565b9150613eb18284613e69565b915081905092915050565b7f4e487b7100000000000000000000000000000000000000000000000000000000600052602260045260246000fd5b60006002820490506001821680613f0357607f821691505b60208210811415613f1757613f16613ebc565b5b50919050565b60008190508160005260206000209050919050565b60008154613f3f81613eeb565b613f498186613e12565b94506001821660008114613f645760018114613f7557613fa8565b60ff19831686528186019350613fa8565b613f7e85613f1d565b60005b83811015613fa057815481890152600182019150602081019050613f81565b838801955050505b50505092915050565b7f2f00000000000000000000000000000000000000000000000000000000000000600082015250565b6000613fe7600183613e12565b9150613ff282613fb1565b600182019050919050565b60006140098285613f32565b915061401482613fda565b91506140208284613f32565b91508190509392505050565b7f73657452656465656d3a6f6e6c792063726561746f72206f722061646d696e00600082015250565b6000614062601f83613118565b915061406d8261402c565b602082019050919050565b6000602082019050818103600083015261409181614055565b9050919050565b60006140a48284613e69565b915081905092915050565b7f4e487b7100000000000000000000000000000000000000000000000000000000600052601160045260246000fd5b60006140e982612f06565b91506140f483612f06565b9250817fffffffffffffffffffffffffffffffffffffffffffffffffffffffffffffffff048311821515161561412d5761412c6140af565b5b828202905092915050565b7f4e487b7100000000000000000000000000000000000000000000000000000000600052601260045260246000fd5b600061417282612f06565b915061417d83612f06565b92508261418d5761418c614138565b5b828204905092915050565b7f455243313135353a207472616e736665722063616c6c6572206973206e6f742060008201527f6f776e6572206e6f7220617070726f7665640000000000000000000000000000602082015250565b60006141f4603283613118565b91506141ff82614198565b604082019050919050565b60006020820190508181036000830152614223816141e7565b9050919050565b7f6e6f7420617574686f72697a656420746f206d696e7400000000000000000000600082015250565b6000614260601683613118565b915061426b8261422a565b602082019050919050565b6000602082019050818103600083015261428f81614253565b9050919050565b7f4e46542068617320616c7265616479206265656e206d696e7465640000000000600082015250565b60006142cc601b83613118565b91506142d782614296565b602082019050919050565b600060208201905081810360008301526142fb816142bf565b9050919050565b6000604082019050818103600083015261431c818561316d565b90508181036020830152614330818461316d565b90509392505050565b7f455243313135353a206163636f756e747320616e6420696473206c656e67746860008201527f206d69736d617463680000000000000000000000000000000000000000000000602082015250565b6000614395602983613118565b91506143a082614339565b604082019050919050565b600060208201905081810360008301526143c481614388565b9050919050565b7f4e487b7100000000000000000000000000000000000000000000000000000000600052603260045260246000fd5b600061440582612f06565b91507fffffffffffffffffffffffffffffffffffffffffffffffffffffffffffffffff821415614438576144376140af565b5b600182019050919050565b7f4f776e61626c653a2063616c6c6572206973206e6f7420746865206f776e6572600082015250565b6000614479602083613118565b915061448482614443565b602082019050919050565b600060208201905081810360008301526144a88161446c565b9050919050565b7f617272617973206d757374206861766520657175616c206c656e677468000000600082015250565b60006144e5601d83613118565b91506144f0826144af565b602082019050919050565b60006020820190508181036000830152614514816144d8565b9050919050565b7f77686974656c6973742073746174757320697320616c72656164792000000000600082015250565b6000614551601c83613e12565b915061455c8261451b565b601c82019050919050565b600061457282614544565b915061457e8284613e69565b915081905092915050565b7f455243313135353a2073657474696e6720617070726f76616c2073746174757360008201527f20666f722073656c660000000000000000000000000000000000000000000000602082015250565b60006145e5602983613118565b91506145f082614589565b604082019050919050565b60006020820190508181036000830152614614816145d8565b9050919050565b7f455243313135353a2063616c6c6572206973206e6f74206f776e6572206e6f7260008201527f20617070726f7665640000000000000000000000000000000000000000000000602082015250565b6000614677602983613118565b91506146828261461b565b604082019050919050565b600060208201905081810360008301526146a68161466a565b9050919050565b7f4f776e61626c653a206e6577206f776e657220697320746865207a65726f206160008201527f6464726573730000000000000000000000000000000000000000000000000000602082015250565b6000614709602683613118565b9150614714826146ad565b604082019050919050565b60006020820190508181036000830152614738816146fc565b9050919050565b7f4552433136353a20696e76616c696420696e7465726661636520696400000000600082015250565b6000614775601c83613118565b91506147808261473f565b602082019050919050565b600060208201905081810360008301526147a481614768565b9050919050565b7f455243313135353a2069647320616e6420616d6f756e7473206c656e6774682060008201527f6d69736d61746368000000000000000000000000000000000000000000000000602082015250565b6000614807602883613118565b9150614812826147ab565b604082019050919050565b60006020820190508181036000830152614836816147fa565b9050919050565b7f455243313135353a207472616e7366657220746f20746865207a65726f20616460008201527f6472657373000000000000000000000000000000000000000000000000000000602082015250565b6000614899602583613118565b91506148a48261483d565b604082019050919050565b600060208201905081810360008301526148c88161488c565b9050919050565b7f455243313135353a20696e73756666696369656e742062616c616e636520666f60008201527f72207472616e7366657200000000000000000000000000000000000000000000602082015250565b600061492b602a83613118565b9150614936826148cf565b604082019050919050565b6000602082019050818103600083015261495a8161491e565b9050919050565b600061496c82612f06565b915061497783612f06565b9250827fffffffffffffffffffffffffffffffffffffffffffffffffffffffffffffffff038211156149ac576149ab6140af565b5b828201905092915050565b600060408201905081810360008301526149d1818561399d565b905081810360208301526149e5818461399d565b90509392505050565b7f455243313135353a206d696e7420746f20746865207a65726f2061646472657360008201527f7300000000000000000000000000000000000000000000000000000000000000602082015250565b6000614a4a602183613118565b9150614a55826149ee565b604082019050919050565b60006020820190508181036000830152614a7981614a3d565b9050919050565b600081519050919050565b600082825260208201905092915050565b6000614aa782614a80565b614ab18185614a8b565b9350614ac1818560208601613129565b614aca8161315c565b840191505092915050565b600060a082019050614aea60008301886133ac565b614af760208301876133ac565b8181036040830152614b09818661399d565b90508181036060830152614b1d818561399d565b90508181036080830152614b318184614a9c565b90509695505050505050565b600081519050614b4c8161305d565b92915050565b600060208284031215614b6857614b67612e9e565b5b6000614b7684828501614b3d565b91505092915050565b60008160e01c9050919050565b600060033d1115614bab5760046000803e614ba8600051614b7f565b90505b90565b600060443d1015614bbe57614c41565b614bc6612e94565b60043d036004823e80513d602482011167ffffffffffffffff82111715614bee575050614c41565b808201805167ffffffffffffffff811115614c0c5750505050614c41565b80602083010160043d038501811115614c29575050505050614c41565b614c3882602001850186613201565b82955050505050505b90565b7f455243313135353a207472616e7366657220746f206e6f6e204552433131353560008201527f526563656976657220696d706c656d656e746572000000000000000000000000602082015250565b6000614ca0603483613118565b9150614cab82614c44565b604082019050919050565b60006020820190508181036000830152614ccf81614c93565b9050919050565b7f455243313135353a204552433131353552656365697665722072656a6563746560008201527f6420746f6b656e73000000000000000000000000000000000000000000000000602082015250565b6000614d32602883613118565b9150614d3d82614cd6565b604082019050919050565b60006020820190508181036000830152614d6181614d25565b9050919050565b600060a082019050614d7d60008301886133ac565b614d8a60208301876133ac565b614d976040830186612f7c565b614da46060830185612f7c565b8181036080830152614db68184614a9c565b9050969550505050505056fea2646970667358221220983d82798877af93b23a5096744a5ee0187ba72a090b46e9cd24059e4b6ffd0d64736f6c634300080a0033",
  "linkReferences": {},
  "deployedLinkReferences": {}
}