{
  "_format": "hh-sol-artifact-1",
  "contractName": "IndiNFTSale",
  "sourceName": "contracts/Sale.sol",
  "abi": [
    {
      "inputs": [
        {
          "internalType": "address",
          "name": "registry",
          "type": "address"
        }
      ],
      "stateMutability": "nonpayable",
      "type": "constructor"
    },
    {
      "anonymous": false,
      "inputs": [
        {
          "indexed": true,
          "internalType": "address",
          "name": "accountOf",
          "type": "address"
        },
        {
          "indexed": true,
          "internalType": "address",
          "name": "tokenAddress",
          "type": "address"
        },
        {
          "indexed": true,
          "internalType": "uint256",
          "name": "newBalance",
          "type": "uint256"
        }
      ],
      "name": "BalanceUpdated",
      "type": "event"
    },
    {
      "anonymous": false,
      "inputs": [
        {
          "indexed": true,
          "internalType": "uint256",
          "name": "id",
          "type": "uint256"
        },
        {
          "indexed": true,
          "internalType": "address",
          "name": "owner",
          "type": "address"
        },
        {
          "indexed": true,
          "internalType": "uint256",
          "name": "amount",
          "type": "uint256"
        }
      ],
      "name": "NFTsReclaimed",
      "type": "event"
    },
    {
      "anonymous": false,
      "inputs": [
        {
          "indexed": true,
          "internalType": "uint256",
          "name": "id",
          "type": "uint256"
        },
        {
          "components": [
            {
              "internalType": "uint256",
              "name": "id",
              "type": "uint256"
            },
            {
              "internalType": "address",
              "name": "owner",
              "type": "address"
            },
            {
              "internalType": "address",
              "name": "nftContract",
              "type": "address"
            },
            {
              "internalType": "uint256",
              "name": "nftId",
              "type": "uint256"
            },
            {
              "internalType": "uint256",
              "name": "amount",
              "type": "uint256"
            },
            {
              "internalType": "uint256",
              "name": "purchased",
              "type": "uint256"
            },
            {
              "internalType": "uint256",
              "name": "startTime",
              "type": "uint256"
            },
            {
              "internalType": "uint256",
              "name": "endTime",
              "type": "uint256"
            },
            {
              "internalType": "uint256",
              "name": "price",
              "type": "uint256"
            },
            {
              "internalType": "uint256",
              "name": "maxBuyAmount",
              "type": "uint256"
            },
            {
              "internalType": "address",
              "name": "currency",
              "type": "address"
            }
          ],
          "indexed": false,
          "internalType": "struct ISale.Sale",
          "name": "newSale",
          "type": "tuple"
        }
      ],
      "name": "NewSale",
      "type": "event"
    },
    {
      "anonymous": false,
      "inputs": [
        {
          "indexed": true,
          "internalType": "address",
          "name": "previousOwner",
          "type": "address"
        },
        {
          "indexed": true,
          "internalType": "address",
          "name": "newOwner",
          "type": "address"
        }
      ],
      "name": "OwnershipTransferred",
      "type": "event"
    },
    {
      "anonymous": false,
      "inputs": [
        {
          "indexed": false,
          "internalType": "uint256",
          "name": "saleId",
          "type": "uint256"
        },
        {
          "indexed": false,
          "internalType": "address",
          "name": "purchaser",
          "type": "address"
        },
        {
          "indexed": false,
          "internalType": "address",
          "name": "recipient",
          "type": "address"
        },
        {
          "indexed": false,
          "internalType": "uint256",
          "name": "quantity",
          "type": "uint256"
        }
      ],
      "name": "Purchase",
      "type": "event"
    },
    {
      "anonymous": false,
      "inputs": [
        {
          "indexed": true,
          "internalType": "uint256",
          "name": "saleId",
          "type": "uint256"
        }
      ],
      "name": "SaleCancelled",
      "type": "event"
    },
    {
      "inputs": [
        {
          "internalType": "uint256",
          "name": "saleId",
          "type": "uint256"
        },
        {
          "internalType": "address",
          "name": "recipient",
          "type": "address"
        },
        {
          "internalType": "uint256",
          "name": "amountToBuy",
          "type": "uint256"
        },
        {
          "internalType": "uint256",
          "name": "amountFromBalance",
          "type": "uint256"
        }
      ],
      "name": "buy",
      "outputs": [
        {
          "internalType": "bool",
          "name": "",
          "type": "bool"
        }
      ],
      "stateMutability": "payable",
      "type": "function"
    },
    {
      "inputs": [
        {
          "internalType": "uint256",
          "name": "saleId",
          "type": "uint256"
        }
      ],
      "name": "cancelSale",
      "outputs": [],
      "stateMutability": "nonpayable",
      "type": "function"
    },
    {
      "inputs": [
        {
          "internalType": "address",
          "name": "tokenContract",
          "type": "address"
        }
      ],
      "name": "claimFunds",
      "outputs": [],
      "stateMutability": "nonpayable",
      "type": "function"
    },
    {
      "inputs": [
        {
          "internalType": "uint256",
          "name": "saleId",
          "type": "uint256"
        }
      ],
      "name": "claimNfts",
      "outputs": [],
      "stateMutability": "nonpayable",
      "type": "function"
    },
    {
      "inputs": [
        {
          "internalType": "address",
          "name": "nftContract",
          "type": "address"
        },
        {
          "internalType": "uint256",
          "name": "id",
          "type": "uint256"
        },
        {
          "internalType": "uint256",
          "name": "amount",
          "type": "uint256"
        },
        {
          "internalType": "uint256",
          "name": "startTime",
          "type": "uint256"
        },
        {
          "internalType": "uint256",
          "name": "endTime",
          "type": "uint256"
        },
        {
          "internalType": "uint256",
          "name": "price",
          "type": "uint256"
        },
        {
          "internalType": "uint256",
          "name": "maxBuyAmount",
          "type": "uint256"
        },
        {
          "internalType": "address",
          "name": "currency",
          "type": "address"
        }
      ],
      "name": "createSale",
      "outputs": [
        {
          "internalType": "uint256",
          "name": "",
          "type": "uint256"
        }
      ],
      "stateMutability": "nonpayable",
      "type": "function"
    },
    {
      "inputs": [
        {
          "internalType": "address",
          "name": "account",
          "type": "address"
        },
        {
          "internalType": "address",
          "name": "token",
          "type": "address"
        }
      ],
      "name": "getClaimableBalance",
      "outputs": [
        {
          "internalType": "uint256",
          "name": "",
          "type": "uint256"
        }
      ],
      "stateMutability": "view",
      "type": "function"
    },
    {
      "inputs": [
        {
          "internalType": "uint256",
          "name": "saleId",
          "type": "uint256"
        }
      ],
      "name": "getSaleDetails",
      "outputs": [
        {
          "components": [
            {
              "internalType": "uint256",
              "name": "id",
              "type": "uint256"
            },
            {
              "internalType": "address",
              "name": "owner",
              "type": "address"
            },
            {
              "internalType": "address",
              "name": "nftContract",
              "type": "address"
            },
            {
              "internalType": "uint256",
              "name": "nftId",
              "type": "uint256"
            },
            {
              "internalType": "uint256",
              "name": "amount",
              "type": "uint256"
            },
            {
              "internalType": "uint256",
              "name": "purchased",
              "type": "uint256"
            },
            {
              "internalType": "uint256",
              "name": "startTime",
              "type": "uint256"
            },
            {
              "internalType": "uint256",
              "name": "endTime",
              "type": "uint256"
            },
            {
              "internalType": "uint256",
              "name": "price",
              "type": "uint256"
            },
            {
              "internalType": "uint256",
              "name": "maxBuyAmount",
              "type": "uint256"
            },
            {
              "internalType": "address",
              "name": "currency",
              "type": "address"
            }
          ],
          "internalType": "struct ISale.Sale",
          "name": "",
          "type": "tuple"
        }
      ],
      "stateMutability": "view",
      "type": "function"
    },
    {
      "inputs": [
        {
          "internalType": "uint256",
          "name": "saleId",
          "type": "uint256"
        }
      ],
      "name": "getSaleStatus",
      "outputs": [
        {
          "internalType": "string",
          "name": "",
          "type": "string"
        }
      ],
      "stateMutability": "view",
      "type": "function"
    },
    {
      "inputs": [
        {
          "internalType": "address",
          "name": "operator",
          "type": "address"
        },
        {
          "internalType": "address",
          "name": "from",
          "type": "address"
        },
        {
          "internalType": "uint256",
          "name": "id",
          "type": "uint256"
        },
        {
          "internalType": "uint256",
          "name": "value",
          "type": "uint256"
        },
        {
          "internalType": "bytes",
          "name": "data",
          "type": "bytes"
        }
      ],
      "name": "onERC1155Received",
      "outputs": [
        {
          "internalType": "bytes4",
          "name": "",
          "type": "bytes4"
        }
      ],
      "stateMutability": "pure",
      "type": "function"
    },
    {
      "inputs": [],
      "name": "owner",
      "outputs": [
        {
          "internalType": "address",
          "name": "",
          "type": "address"
        }
      ],
      "stateMutability": "view",
      "type": "function"
    },
    {
      "inputs": [],
      "name": "renounceOwnership",
      "outputs": [],
      "stateMutability": "nonpayable",
      "type": "function"
    },
    {
      "inputs": [
        {
          "internalType": "address",
          "name": "newOwner",
          "type": "address"
        }
      ],
      "name": "transferOwnership",
      "outputs": [],
      "stateMutability": "nonpayable",
      "type": "function"
    }
  ],
  "bytecode": "0x60806040523480156200001157600080fd5b5060405162004b2338038062004b238339818101604052810190620000379190620001dc565b620000576200004b620000a660201b60201c565b620000ae60201b60201c565b6001808190555080600360006101000a81548173ffffffffffffffffffffffffffffffffffffffff021916908373ffffffffffffffffffffffffffffffffffffffff160217905550506200020e565b600033905090565b60008060009054906101000a900473ffffffffffffffffffffffffffffffffffffffff169050816000806101000a81548173ffffffffffffffffffffffffffffffffffffffff021916908373ffffffffffffffffffffffffffffffffffffffff1602179055508173ffffffffffffffffffffffffffffffffffffffff168173ffffffffffffffffffffffffffffffffffffffff167f8be0079c531659141344cd1fd0a4f28419497f9722a3daafe3b4186f6b6457e060405160405180910390a35050565b600080fd5b600073ffffffffffffffffffffffffffffffffffffffff82169050919050565b6000620001a48262000177565b9050919050565b620001b68162000197565b8114620001c257600080fd5b50565b600081519050620001d681620001ab565b92915050565b600060208284031215620001f557620001f462000172565b5b60006200020584828501620001c5565b91505092915050565b614905806200021e6000396000f3fe6080604052600436106100a75760003560e01c80638c746d8b116100645780638c746d8b146101bf5780638da5cb5b146101fc578063bd94b00514610227578063d254d2c614610250578063f23a6e611461028d578063f2fde38b146102ca576100a7565b806330ff3043146100ac5780634ccdb986146100e9578063645aa93714610126578063693d0df21461014f578063706910ff14610178578063715018a6146101a8575b600080fd5b3480156100b857600080fd5b506100d360048036038101906100ce9190613051565b6102f3565b6040516100e091906130aa565b60405180910390f35b3480156100f557600080fd5b50610110600480360381019061010b91906130f1565b61037a565b60405161011d91906130aa565b60405180910390f35b34801561013257600080fd5b5061014d600480360381019061014891906131a7565b610b2e565b005b34801561015b57600080fd5b50610176600480360381019061017191906131d4565b610ec8565b005b610192600480360381019061018d9190613201565b611316565b60405161019f9190613283565b60405180910390f35b3480156101b457600080fd5b506101bd6121e0565b005b3480156101cb57600080fd5b506101e660048036038101906101e191906131a7565b612268565b6040516101f3919061339d565b60405180910390f35b34801561020857600080fd5b50610211612440565b60405161021e91906133c8565b60405180910390f35b34801561023357600080fd5b5061024e600480360381019061024991906131a7565b612469565b005b34801561025c57600080fd5b50610277600480360381019061027291906131a7565b612688565b604051610284919061347c565b60405180910390f35b34801561029957600080fd5b506102b460048036038101906102af91906135d3565b6129ca565b6040516102c191906136a5565b60405180910390f35b3480156102d657600080fd5b506102f160048036038101906102ec91906131d4565b6129df565b005b6000600760008473ffffffffffffffffffffffffffffffffffffffff1673ffffffffffffffffffffffffffffffffffffffff16815260200190815260200160002060008373ffffffffffffffffffffffffffffffffffffffff1673ffffffffffffffffffffffffffffffffffffffff16815260200190815260200160002054905092915050565b6000600260015414156103c2576040517f08c379a00000000000000000000000000000000000000000000000000000000081526004016103b99061370c565b60405180910390fd5b6002600181905550600089905060011515600360009054906101000a900473ffffffffffffffffffffffffffffffffffffffff1673ffffffffffffffffffffffffffffffffffffffff1663e055799d8c6040518263ffffffff1660e01b815260040161042e91906133c8565b602060405180830381865afa15801561044b573d6000803e3d6000fd5b505050506040513d601f19601f8201168201806040525081019061046f9190613758565b1515146104b1576040517f08c379a00000000000000000000000000000000000000000000000000000000081526004016104a8906137d1565b60405180910390fd5b60011515600360009054906101000a900473ffffffffffffffffffffffffffffffffffffffff1673ffffffffffffffffffffffffffffffffffffffff1663e055799d306040518263ffffffff1660e01b815260040161051091906133c8565b602060405180830381865afa15801561052d573d6000803e3d6000fd5b505050506040513d601f19601f820116820180604052508101906105519190613758565b151514610593576040517f08c379a000000000000000000000000000000000000000000000000000000000815260040161058a9061383d565b60405180910390fd5b60011515600360009054906101000a900473ffffffffffffffffffffffffffffffffffffffff1673ffffffffffffffffffffffffffffffffffffffff1663fd0176d2856040518263ffffffff1660e01b81526004016105f291906133c8565b602060405180830381865afa15801561060f573d6000803e3d6000fd5b505050506040513d601f19601f820116820180604052508101906106339190613758565b151514610675576040517f08c379a000000000000000000000000000000000000000000000000000000000815260040161066c906138a9565b60405180910390fd5b8073ffffffffffffffffffffffffffffffffffffffff166301ffc9a7632a55205a6040518263ffffffff1660e01b81526004016106b29190613911565b6020604051808303816000875af11580156106d1573d6000803e3d6000fd5b505050506040513d601f19601f820116820180604052508101906106f59190613758565b610734576040517f08c379a000000000000000000000000000000000000000000000000000000000815260040161072b90613978565b60405180910390fd5b878173ffffffffffffffffffffffffffffffffffffffff1662fdd58e338c6040518363ffffffff1660e01b815260040161076f929190613998565b602060405180830381865afa15801561078c573d6000803e3d6000fd5b505050506040513d601f19601f820116820180604052508101906107b091906139d6565b10156107f1576040517f08c379a00000000000000000000000000000000000000000000000000000000081526004016107e890613a4f565b60405180910390fd5b868611610833576040517f08c379a000000000000000000000000000000000000000000000000000000000815260040161082a90613abb565b60405180910390fd5b60008411610876576040517f08c379a000000000000000000000000000000000000000000000000000000000815260040161086d90613b27565b60405180910390fd5b6108806002612ad7565b600061088c6002612aed565b90506040518061016001604052808281526020013373ffffffffffffffffffffffffffffffffffffffff1681526020018c73ffffffffffffffffffffffffffffffffffffffff1681526020018b81526020018a8152602001600081526020018981526020018881526020018781526020018681526020018573ffffffffffffffffffffffffffffffffffffffff16815250600460008381526020019081526020016000206000820151816000015560208201518160010160006101000a81548173ffffffffffffffffffffffffffffffffffffffff021916908373ffffffffffffffffffffffffffffffffffffffff16021790555060408201518160020160006101000a81548173ffffffffffffffffffffffffffffffffffffffff021916908373ffffffffffffffffffffffffffffffffffffffff160217905550606082015181600301556080820151816004015560a0820151816005015560c0820151816006015560e082015181600701556101008201518160080155610120820151816009015561014082015181600a0160006101000a81548173ffffffffffffffffffffffffffffffffffffffff021916908373ffffffffffffffffffffffffffffffffffffffff1602179055509050508173ffffffffffffffffffffffffffffffffffffffff1663f242432a33308d8d6040518563ffffffff1660e01b8152600401610a9a9493929190613b7e565b600060405180830381600087803b158015610ab457600080fd5b505af1158015610ac8573d6000803e3d6000fd5b50505050807f70fe84af79c44c0b8085739208825b02f15938282d8a755af1ee653e9b1f64b660046000848152602001908152602001600020604051610b0e9190613d9a565b60405180910390a280925050506001808190555098975050505050505050565b6000610b3982612688565b8051906020012090506040518060400160405280600981526020017f43414e43454c4c4544000000000000000000000000000000000000000000000081525080519060200120811480610bc757506040518060400160405280600581526020017f454e4445440000000000000000000000000000000000000000000000000000008152508051906020012081145b610c06576040517f08c379a0000000000000000000000000000000000000000000000000000000008152600401610bfd90613e02565b60405180910390fd5b6004600083815260200190815260200160002060010160009054906101000a900473ffffffffffffffffffffffffffffffffffffffff1673ffffffffffffffffffffffffffffffffffffffff163373ffffffffffffffffffffffffffffffffffffffff1614610caa576040517f08c379a0000000000000000000000000000000000000000000000000000000008152600401610ca190613e6e565b60405180910390fd5b6004600083815260200190815260200160002060040154600460008481526020019081526020016000206005015410610d18576040517f08c379a0000000000000000000000000000000000000000000000000000000008152600401610d0f90613eda565b60405180910390fd5b600060046000848152602001908152602001600020600501546004600085815260200190815260200160002060040154610d529190613f29565b90506004600084815260200190815260200160002060040154600460008581526020019081526020016000206005018190555060006004600085815260200190815260200160002060020160009054906101000a900473ffffffffffffffffffffffffffffffffffffffff1690508073ffffffffffffffffffffffffffffffffffffffff1663f242432a306004600088815260200190815260200160002060010160009054906101000a900473ffffffffffffffffffffffffffffffffffffffff166004600089815260200190815260200160002060030154866040518563ffffffff1660e01b8152600401610e4b9493929190613b7e565b600060405180830381600087803b158015610e6557600080fd5b505af1158015610e79573d6000803e3d6000fd5b50505050813373ffffffffffffffffffffffffffffffffffffffff16857f9ff4586736f6500113f5ef999b390325484795e8dad0e5e2166060a77b936c7360405160405180910390a450505050565b6000600760003373ffffffffffffffffffffffffffffffffffffffff1673ffffffffffffffffffffffffffffffffffffffff16815260200190815260200160002060008373ffffffffffffffffffffffffffffffffffffffff1673ffffffffffffffffffffffffffffffffffffffff1681526020019081526020016000205411610f87576040517f08c379a0000000000000000000000000000000000000000000000000000000008152600401610f7e90613fa9565b60405180910390fd5b6000600760003373ffffffffffffffffffffffffffffffffffffffff1673ffffffffffffffffffffffffffffffffffffffff16815260200190815260200160002060008373ffffffffffffffffffffffffffffffffffffffff1673ffffffffffffffffffffffffffffffffffffffff16815260200190815260200160002054905073aaaaaaaaaaaaaaaaaaaaaaaaaaaaaaaaaaaaaaaa73ffffffffffffffffffffffffffffffffffffffff168273ffffffffffffffffffffffffffffffffffffffff16146111075760008290506000600760003373ffffffffffffffffffffffffffffffffffffffff1673ffffffffffffffffffffffffffffffffffffffff16815260200190815260200160002060008573ffffffffffffffffffffffffffffffffffffffff1673ffffffffffffffffffffffffffffffffffffffff1681526020019081526020016000208190555061110133838373ffffffffffffffffffffffffffffffffffffffff16612afb9092919063ffffffff16565b50611237565b6000600760003373ffffffffffffffffffffffffffffffffffffffff1673ffffffffffffffffffffffffffffffffffffffff16815260200190815260200160002060008473ffffffffffffffffffffffffffffffffffffffff1673ffffffffffffffffffffffffffffffffffffffff1681526020019081526020016000208190555060003373ffffffffffffffffffffffffffffffffffffffff16826040516111af90613ff7565b60006040518083038185875af1925050503d80600081146111ec576040519150601f19603f3d011682016040523d82523d6000602084013e6111f1565b606091505b5050905080611235576040517f08c379a000000000000000000000000000000000000000000000000000000000815260040161122c90614058565b60405180910390fd5b505b6000600760003373ffffffffffffffffffffffffffffffffffffffff1673ffffffffffffffffffffffffffffffffffffffff16815260200190815260200160002060008473ffffffffffffffffffffffffffffffffffffffff1673ffffffffffffffffffffffffffffffffffffffff1681526020019081526020016000208190558273ffffffffffffffffffffffffffffffffffffffff163373ffffffffffffffffffffffffffffffffffffffff167f2047d1633ff7768462ae07d28cb16e484203bfd6d85ce832494270ebcd9081a260405160405180910390a45050565b60006002600154141561135e576040517f08c379a00000000000000000000000000000000000000000000000000000000081526004016113559061370c565b60405180910390fd5b600260018190555060011515600360009054906101000a900473ffffffffffffffffffffffffffffffffffffffff1673ffffffffffffffffffffffffffffffffffffffff1663e055799d306040518263ffffffff1660e01b81526004016113c591906133c8565b602060405180830381865afa1580156113e2573d6000803e3d6000fd5b505050506040513d601f19601f820116820180604052508101906114069190613758565b151514611448576040517f08c379a000000000000000000000000000000000000000000000000000000000815260040161143f9061383d565b60405180910390fd5b6040518060400160405280600681526020017f41435449564500000000000000000000000000000000000000000000000000008152508051906020012061148e86612688565b80519060200120146114d5576040517f08c379a00000000000000000000000000000000000000000000000000000000081526004016114cc906140c4565b60405180910390fd5b60006004600087815260200190815260200160002060405180610160016040529081600082015481526020016001820160009054906101000a900473ffffffffffffffffffffffffffffffffffffffff1673ffffffffffffffffffffffffffffffffffffffff1673ffffffffffffffffffffffffffffffffffffffff1681526020016002820160009054906101000a900473ffffffffffffffffffffffffffffffffffffffff1673ffffffffffffffffffffffffffffffffffffffff1673ffffffffffffffffffffffffffffffffffffffff16815260200160038201548152602001600482015481526020016005820154815260200160068201548152602001600782015481526020016008820154815260200160098201548152602001600a820160009054906101000a900473ffffffffffffffffffffffffffffffffffffffff1673ffffffffffffffffffffffffffffffffffffffff1673ffffffffffffffffffffffffffffffffffffffff16815250509050806101200151846006600089815260200190815260200160002060003373ffffffffffffffffffffffffffffffffffffffff1673ffffffffffffffffffffffffffffffffffffffff168152602001908152602001600020546116ac91906140e4565b11156116ed576040517f08c379a00000000000000000000000000000000000000000000000000000000081526004016116e490614186565b60405180910390fd5b8060a0015181608001516117019190613f29565b841115611743576040517f08c379a000000000000000000000000000000000000000000000000000000000815260040161173a906141f2565b60405180910390fd5b60008161014001519050600760003373ffffffffffffffffffffffffffffffffffffffff1673ffffffffffffffffffffffffffffffffffffffff16815260200190815260200160002060008273ffffffffffffffffffffffffffffffffffffffff1673ffffffffffffffffffffffffffffffffffffffff1681526020019081526020016000205484111561180c576040517f08c379a00000000000000000000000000000000000000000000000000000000081526004016118039061425e565b60405180910390fd5b6000826060015190506000836040015190506000808273ffffffffffffffffffffffffffffffffffffffff16632a55205a858861010001518c61184f919061427e565b6040518363ffffffff1660e01b815260040161186c9291906142d8565b6040805180830381865afa158015611888573d6000803e3d6000fd5b505050506040513d601f19601f820116820180604052508101906118ac9190614316565b9150915073aaaaaaaaaaaaaaaaaaaaaaaaaaaaaaaaaaaaaaaa73ffffffffffffffffffffffffffffffffffffffff168573ffffffffffffffffffffffffffffffffffffffff161461194a57600085905061194433308b8a61010001518e611913919061427e565b61191d9190613f29565b8473ffffffffffffffffffffffffffffffffffffffff16612b81909392919063ffffffff16565b506119a8565b878661010001518a61195c919061427e565b6119669190613f29565b34146119a7576040517f08c379a000000000000000000000000000000000000000000000000000000000815260040161199e906143a2565b60405180910390fd5b5b6000881115611b1c5787600760003373ffffffffffffffffffffffffffffffffffffffff1673ffffffffffffffffffffffffffffffffffffffff16815260200190815260200160002060008773ffffffffffffffffffffffffffffffffffffffff1673ffffffffffffffffffffffffffffffffffffffff1681526020019081526020016000206000828254611a3d9190613f29565b92505081905550600760003373ffffffffffffffffffffffffffffffffffffffff1673ffffffffffffffffffffffffffffffffffffffff16815260200190815260200160002060008673ffffffffffffffffffffffffffffffffffffffff1673ffffffffffffffffffffffffffffffffffffffff168152602001908152602001600020548573ffffffffffffffffffffffffffffffffffffffff163373ffffffffffffffffffffffffffffffffffffffff167f2047d1633ff7768462ae07d28cb16e484203bfd6d85ce832494270ebcd9081a260405160405180910390a45b600080600360009054906101000a900473ffffffffffffffffffffffffffffffffffffffff1673ffffffffffffffffffffffffffffffffffffffff1663e44f5c508961010001518d611b6e919061427e565b6040518263ffffffff1660e01b8152600401611b8a91906130aa565b6040805180830381865afa158015611ba6573d6000803e3d6000fd5b505050506040513d601f19601f82011682018060405250810190611bca9190614316565b9150915080600760008473ffffffffffffffffffffffffffffffffffffffff1673ffffffffffffffffffffffffffffffffffffffff16815260200190815260200160002060008973ffffffffffffffffffffffffffffffffffffffff1673ffffffffffffffffffffffffffffffffffffffff1681526020019081526020016000206000828254611c5a91906140e4565b92505081905550600760008373ffffffffffffffffffffffffffffffffffffffff1673ffffffffffffffffffffffffffffffffffffffff16815260200190815260200160002060008873ffffffffffffffffffffffffffffffffffffffff1673ffffffffffffffffffffffffffffffffffffffff168152602001908152602001600020548773ffffffffffffffffffffffffffffffffffffffff168373ffffffffffffffffffffffffffffffffffffffff167f2047d1633ff7768462ae07d28cb16e484203bfd6d85ce832494270ebcd9081a260405160405180910390a48373ffffffffffffffffffffffffffffffffffffffff16886020015173ffffffffffffffffffffffffffffffffffffffff1614611ede5782600760008673ffffffffffffffffffffffffffffffffffffffff1673ffffffffffffffffffffffffffffffffffffffff16815260200190815260200160002060008973ffffffffffffffffffffffffffffffffffffffff1673ffffffffffffffffffffffffffffffffffffffff1681526020019081526020016000206000828254611dfb91906140e4565b92505081905550600760008573ffffffffffffffffffffffffffffffffffffffff1673ffffffffffffffffffffffffffffffffffffffff16815260200190815260200160002060008873ffffffffffffffffffffffffffffffffffffffff1673ffffffffffffffffffffffffffffffffffffffff168152602001908152602001600020548773ffffffffffffffffffffffffffffffffffffffff168573ffffffffffffffffffffffffffffffffffffffff167f2047d1633ff7768462ae07d28cb16e484203bfd6d85ce832494270ebcd9081a260405160405180910390a4611ee3565b600092505b82818961010001518d611ef6919061427e565b611f009190613f29565b611f0a9190613f29565b600760008a6020015173ffffffffffffffffffffffffffffffffffffffff1673ffffffffffffffffffffffffffffffffffffffff16815260200190815260200160002060008973ffffffffffffffffffffffffffffffffffffffff1673ffffffffffffffffffffffffffffffffffffffff1681526020019081526020016000206000828254611f9991906140e4565b9250508190555060076000896020015173ffffffffffffffffffffffffffffffffffffffff1673ffffffffffffffffffffffffffffffffffffffff16815260200190815260200160002060008873ffffffffffffffffffffffffffffffffffffffff1673ffffffffffffffffffffffffffffffffffffffff168152602001908152602001600020548773ffffffffffffffffffffffffffffffffffffffff16896020015173ffffffffffffffffffffffffffffffffffffffff167f2047d1633ff7768462ae07d28cb16e484203bfd6d85ce832494270ebcd9081a260405160405180910390a48a600460008f815260200190815260200160002060050160008282546120a591906140e4565b925050819055508a600660008f815260200190815260200160002060003373ffffffffffffffffffffffffffffffffffffffff1673ffffffffffffffffffffffffffffffffffffffff168152602001908152602001600020600082825461210c91906140e4565b925050819055508473ffffffffffffffffffffffffffffffffffffffff1663f242432a308e8b606001518f6040518563ffffffff1660e01b81526004016121569493929190613b7e565b600060405180830381600087803b15801561217057600080fd5b505af1158015612184573d6000803e3d6000fd5b505050507fe3cf0e0098f447c6d9bc08ffbbf3f193d35c51b57d7de6bb9ccb79f4995ccf718d338e8e6040516121bd94939291906143c2565b60405180910390a160019850505050505050505060018081905550949350505050565b6121e8612c0a565b73ffffffffffffffffffffffffffffffffffffffff16612206612440565b73ffffffffffffffffffffffffffffffffffffffff161461225c576040517f08c379a000000000000000000000000000000000000000000000000000000000815260040161225390614453565b60405180910390fd5b6122666000612c12565b565b612270612f43565b61227a6002612aed565b82111580156122895750600082115b6122c8576040517f08c379a00000000000000000000000000000000000000000000000000000000081526004016122bf906144bf565b60405180910390fd5b6004600083815260200190815260200160002060405180610160016040529081600082015481526020016001820160009054906101000a900473ffffffffffffffffffffffffffffffffffffffff1673ffffffffffffffffffffffffffffffffffffffff1673ffffffffffffffffffffffffffffffffffffffff1681526020016002820160009054906101000a900473ffffffffffffffffffffffffffffffffffffffff1673ffffffffffffffffffffffffffffffffffffffff1673ffffffffffffffffffffffffffffffffffffffff16815260200160038201548152602001600482015481526020016005820154815260200160068201548152602001600782015481526020016008820154815260200160098201548152602001600a820160009054906101000a900473ffffffffffffffffffffffffffffffffffffffff1673ffffffffffffffffffffffffffffffffffffffff1673ffffffffffffffffffffffffffffffffffffffff16815250509050919050565b60008060009054906101000a900473ffffffffffffffffffffffffffffffffffffffff16905090565b6004600082815260200190815260200160002060010160009054906101000a900473ffffffffffffffffffffffffffffffffffffffff1673ffffffffffffffffffffffffffffffffffffffff163373ffffffffffffffffffffffffffffffffffffffff16148061250b57506124dc612440565b73ffffffffffffffffffffffffffffffffffffffff163373ffffffffffffffffffffffffffffffffffffffff16145b61254a576040517f08c379a00000000000000000000000000000000000000000000000000000000081526004016125419061452b565b60405180910390fd5b6040518060400160405280600681526020017f41435449564500000000000000000000000000000000000000000000000000008152508051906020012061259082612688565b8051906020012014806125ed57506040518060400160405280600781526020017f50454e44494e4700000000000000000000000000000000000000000000000000815250805190602001206125e482612688565b80519060200120145b61262c576040517f08c379a000000000000000000000000000000000000000000000000000000000815260040161262390614597565b60405180910390fd5b60016005600083815260200190815260200160002060006101000a81548160ff021916908315150217905550807f2c56893f6f6026d19bd17b7d05c9f15c522de1ae2b1c3a825f91a73c799321f260405160405180910390a250565b60606126946002612aed565b82111580156126a35750600082115b6126e2576040517f08c379a00000000000000000000000000000000000000000000000000000000081526004016126d9906144bf565b60405180910390fd5b6005600083815260200190815260200160002060009054906101000a900460ff16806127a75750600360009054906101000a900473ffffffffffffffffffffffffffffffffffffffff1673ffffffffffffffffffffffffffffffffffffffff1663e055799d306040518263ffffffff1660e01b815260040161276491906133c8565b602060405180830381865afa158015612781573d6000803e3d6000fd5b505050506040513d601f19601f820116820180604052508101906127a59190613758565b155b156127e9576040518060400160405280600981526020017f43414e43454c4c4544000000000000000000000000000000000000000000000081525090506129c5565b6004600083815260200190815260200160002060060154421015612844576040518060400160405280600781526020017f50454e44494e470000000000000000000000000000000000000000000000000081525090506129c5565b6004600083815260200190815260200160002060060154421015801561287f5750600460008381526020019081526020016000206007015442105b80156128b6575060046000838152602001908152602001600020600401546004600084815260200190815260200160002060050154105b156128f8576040518060400160405280600681526020017f414354495645000000000000000000000000000000000000000000000000000081525090506129c5565b600460008381526020019081526020016000206007015442101580612948575060046000838152602001908152602001600020600401546004600084815260200190815260200160002060050154145b1561298a576040518060400160405280600581526020017f454e44454400000000000000000000000000000000000000000000000000000081525090506129c5565b6040517f08c379a00000000000000000000000000000000000000000000000000000000081526004016129bc90614603565b60405180910390fd5b919050565b600063f23a6e6160e01b905095945050505050565b6129e7612c0a565b73ffffffffffffffffffffffffffffffffffffffff16612a05612440565b73ffffffffffffffffffffffffffffffffffffffff1614612a5b576040517f08c379a0000000000000000000000000000000000000000000000000000000008152600401612a5290614453565b60405180910390fd5b600073ffffffffffffffffffffffffffffffffffffffff168173ffffffffffffffffffffffffffffffffffffffff161415612acb576040517f08c379a0000000000000000000000000000000000000000000000000000000008152600401612ac290614695565b60405180910390fd5b612ad481612c12565b50565b6001816000016000828254019250508190555050565b600081600001549050919050565b612b7c8363a9059cbb60e01b8484604051602401612b1a929190613998565b604051602081830303815290604052907bffffffffffffffffffffffffffffffffffffffffffffffffffffffff19166020820180517bffffffffffffffffffffffffffffffffffffffffffffffffffffffff8381831617835250505050612cd6565b505050565b612c04846323b872dd60e01b858585604051602401612ba2939291906146b5565b604051602081830303815290604052907bffffffffffffffffffffffffffffffffffffffffffffffffffffffff19166020820180517bffffffffffffffffffffffffffffffffffffffffffffffffffffffff8381831617835250505050612cd6565b50505050565b600033905090565b60008060009054906101000a900473ffffffffffffffffffffffffffffffffffffffff169050816000806101000a81548173ffffffffffffffffffffffffffffffffffffffff021916908373ffffffffffffffffffffffffffffffffffffffff1602179055508173ffffffffffffffffffffffffffffffffffffffff168173ffffffffffffffffffffffffffffffffffffffff167f8be0079c531659141344cd1fd0a4f28419497f9722a3daafe3b4186f6b6457e060405160405180910390a35050565b6000612d38826040518060400160405280602081526020017f5361666545524332303a206c6f772d6c6576656c2063616c6c206661696c65648152508573ffffffffffffffffffffffffffffffffffffffff16612d9d9092919063ffffffff16565b9050600081511115612d985780806020019051810190612d589190613758565b612d97576040517f08c379a0000000000000000000000000000000000000000000000000000000008152600401612d8e9061475e565b60405180910390fd5b5b505050565b6060612dac8484600085612db5565b90509392505050565b606082471015612dfa576040517f08c379a0000000000000000000000000000000000000000000000000000000008152600401612df1906147f0565b60405180910390fd5b612e0385612ec9565b612e42576040517f08c379a0000000000000000000000000000000000000000000000000000000008152600401612e399061485c565b60405180910390fd5b6000808673ffffffffffffffffffffffffffffffffffffffff168587604051612e6b91906148b8565b60006040518083038185875af1925050503d8060008114612ea8576040519150601f19603f3d011682016040523d82523d6000602084013e612ead565b606091505b5091509150612ebd828286612edc565b92505050949350505050565b600080823b905060008111915050919050565b60608315612eec57829050612f3c565b600083511115612eff5782518084602001fd5b816040517f08c379a0000000000000000000000000000000000000000000000000000000008152600401612f33919061347c565b60405180910390fd5b9392505050565b60405180610160016040528060008152602001600073ffffffffffffffffffffffffffffffffffffffff168152602001600073ffffffffffffffffffffffffffffffffffffffff16815260200160008152602001600081526020016000815260200160008152602001600081526020016000815260200160008152602001600073ffffffffffffffffffffffffffffffffffffffff1681525090565b6000604051905090565b600080fd5b600080fd5b600073ffffffffffffffffffffffffffffffffffffffff82169050919050565b600061301e82612ff3565b9050919050565b61302e81613013565b811461303957600080fd5b50565b60008135905061304b81613025565b92915050565b6000806040838503121561306857613067612fe9565b5b60006130768582860161303c565b92505060206130878582860161303c565b9150509250929050565b6000819050919050565b6130a481613091565b82525050565b60006020820190506130bf600083018461309b565b92915050565b6130ce81613091565b81146130d957600080fd5b50565b6000813590506130eb816130c5565b92915050565b600080600080600080600080610100898b03121561311257613111612fe9565b5b60006131208b828c0161303c565b98505060206131318b828c016130dc565b97505060406131428b828c016130dc565b96505060606131538b828c016130dc565b95505060806131648b828c016130dc565b94505060a06131758b828c016130dc565b93505060c06131868b828c016130dc565b92505060e06131978b828c0161303c565b9150509295985092959890939650565b6000602082840312156131bd576131bc612fe9565b5b60006131cb848285016130dc565b91505092915050565b6000602082840312156131ea576131e9612fe9565b5b60006131f88482850161303c565b91505092915050565b6000806000806080858703121561321b5761321a612fe9565b5b6000613229878288016130dc565b945050602061323a8782880161303c565b935050604061324b878288016130dc565b925050606061325c878288016130dc565b91505092959194509250565b60008115159050919050565b61327d81613268565b82525050565b60006020820190506132986000830184613274565b92915050565b6132a781613091565b82525050565b6132b681613013565b82525050565b610160820160008201516132d3600085018261329e565b5060208201516132e660208501826132ad565b5060408201516132f960408501826132ad565b50606082015161330c606085018261329e565b50608082015161331f608085018261329e565b5060a082015161333260a085018261329e565b5060c082015161334560c085018261329e565b5060e082015161335860e085018261329e565b5061010082015161336d61010085018261329e565b5061012082015161338261012085018261329e565b506101408201516133976101408501826132ad565b50505050565b6000610160820190506133b360008301846132bc565b92915050565b6133c281613013565b82525050565b60006020820190506133dd60008301846133b9565b92915050565b600081519050919050565b600082825260208201905092915050565b60005b8381101561341d578082015181840152602081019050613402565b8381111561342c576000848401525b50505050565b6000601f19601f8301169050919050565b600061344e826133e3565b61345881856133ee565b93506134688185602086016133ff565b61347181613432565b840191505092915050565b600060208201905081810360008301526134968184613443565b905092915050565b600080fd5b600080fd5b7f4e487b7100000000000000000000000000000000000000000000000000000000600052604160045260246000fd5b6134e082613432565b810181811067ffffffffffffffff821117156134ff576134fe6134a8565b5b80604052505050565b6000613512612fdf565b905061351e82826134d7565b919050565b600067ffffffffffffffff82111561353e5761353d6134a8565b5b61354782613432565b9050602081019050919050565b82818337600083830152505050565b600061357661357184613523565b613508565b905082815260208101848484011115613592576135916134a3565b5b61359d848285613554565b509392505050565b600082601f8301126135ba576135b961349e565b5b81356135ca848260208601613563565b91505092915050565b600080600080600060a086880312156135ef576135ee612fe9565b5b60006135fd8882890161303c565b955050602061360e8882890161303c565b945050604061361f888289016130dc565b9350506060613630888289016130dc565b925050608086013567ffffffffffffffff81111561365157613650612fee565b5b61365d888289016135a5565b9150509295509295909350565b60007fffffffff0000000000000000000000000000000000000000000000000000000082169050919050565b61369f8161366a565b82525050565b60006020820190506136ba6000830184613696565b92915050565b7f5265656e7472616e637947756172643a207265656e7472616e742063616c6c00600082015250565b60006136f6601f836133ee565b9150613701826136c0565b602082019050919050565b60006020820190508181036000830152613725816136e9565b9050919050565b61373581613268565b811461374057600080fd5b50565b6000815190506137528161372c565b92915050565b60006020828403121561376e5761376d612fe9565b5b600061377c84828501613743565b91505092915050565b7f4e4654206e6f7420696e20617070726f76656420636f6e747261637400000000600082015250565b60006137bb601c836133ee565b91506137c682613785565b602082019050919050565b600060208201905081810360008301526137ea816137ae565b9050919050565b7f5468697320636f6e747261637420697320646570726563617465640000000000600082015250565b6000613827601b836133ee565b9150613832826137f1565b602082019050919050565b600060208201905081810360008301526138568161381a565b9050919050565b7f63757272656e6379206e6f7420737570706f7274656400000000000000000000600082015250565b60006138936016836133ee565b915061389e8261385d565b602082019050919050565b600060208201905081810360008301526138c281613886565b9050919050565b6000819050919050565b60008160e01b9050919050565b60006138fb6138f66138f1846138c9565b6138d3565b61366a565b9050919050565b61390b816138e0565b82525050565b60006020820190506139266000830184613902565b92915050565b7f636f6e7472616374206d75737420737570706f72742045524332393831000000600082015250565b6000613962601d836133ee565b915061396d8261392c565b602082019050919050565b6000602082019050818103600083015261399181613955565b9050919050565b60006040820190506139ad60008301856133b9565b6139ba602083018461309b565b9392505050565b6000815190506139d0816130c5565b92915050565b6000602082840312156139ec576139eb612fe9565b5b60006139fa848285016139c1565b91505092915050565b7f696e73756666696369656e74204e46542062616c616e63650000000000000000600082015250565b6000613a396018836133ee565b9150613a4482613a03565b602082019050919050565b60006020820190508181036000830152613a6881613a2c565b9050919050565b7f6572726f7220696e2073746172742f656e6420706172616d7300000000000000600082015250565b6000613aa56019836133ee565b9150613ab082613a6f565b602082019050919050565b60006020820190508181036000830152613ad481613a98565b9050919050565b7f6d6178427579416d6f756e74206d757374206265206e6f6e2d7a65726f000000600082015250565b6000613b11601d836133ee565b9150613b1c82613adb565b602082019050919050565b60006020820190508181036000830152613b4081613b04565b9050919050565b600082825260208201905092915050565b50565b6000613b68600083613b47565b9150613b7382613b58565b600082019050919050565b600060a082019050613b9360008301876133b9565b613ba060208301866133b9565b613bad604083018561309b565b613bba606083018461309b565b8181036080830152613bcb81613b5b565b905095945050505050565b60008160001c9050919050565b6000819050919050565b6000613c00613bfb83613bd6565b613be3565b9050919050565b600073ffffffffffffffffffffffffffffffffffffffff82169050919050565b6000613c3a613c3583613bd6565b613c07565b9050919050565b61016082016000808301549050613c5781613bed565b613c64600086018261329e565b5060018301549050613c7581613c27565b613c8260208601826132ad565b5060028301549050613c9381613c27565b613ca060408601826132ad565b5060038301549050613cb181613bed565b613cbe606086018261329e565b5060048301549050613ccf81613bed565b613cdc608086018261329e565b5060058301549050613ced81613bed565b613cfa60a086018261329e565b5060068301549050613d0b81613bed565b613d1860c086018261329e565b5060078301549050613d2981613bed565b613d3660e086018261329e565b5060088301549050613d4781613bed565b613d5561010086018261329e565b5060098301549050613d6681613bed565b613d7461012086018261329e565b50600a8301549050613d8581613c27565b613d936101408601826132ad565b5050505050565b600061016082019050613db06000830184613c41565b92915050565b7f63616e6e6f7420636c61696d206265666f72652073616c6520636c6f73657300600082015250565b6000613dec601f836133ee565b9150613df782613db6565b602082019050919050565b60006020820190508181036000830152613e1b81613ddf565b9050919050565b7f6f6e6c79206e6674206f776e65722063616e20636c61696d0000000000000000600082015250565b6000613e586018836133ee565b9150613e6382613e22565b602082019050919050565b60006020820190508181036000830152613e8781613e4b565b9050919050565b7f73746f636b20616c726561647920736f6c64206f7220636c61696d6564000000600082015250565b6000613ec4601d836133ee565b9150613ecf82613e8e565b602082019050919050565b60006020820190508181036000830152613ef381613eb7565b9050919050565b7f4e487b7100000000000000000000000000000000000000000000000000000000600052601160045260246000fd5b6000613f3482613091565b9150613f3f83613091565b925082821015613f5257613f51613efa565b5b828203905092915050565b7f6e6f7468696e6720746f20636c61696d00000000000000000000000000000000600082015250565b6000613f936010836133ee565b9150613f9e82613f5d565b602082019050919050565b60006020820190508181036000830152613fc281613f86565b9050919050565b600081905092915050565b6000613fe1600083613fc9565b9150613fec82613b58565b600082019050919050565b600061400282613fd4565b9150819050919050565b7f455448207061796f7574206661696c6564000000000000000000000000000000600082015250565b60006140426011836133ee565b915061404d8261400c565b602082019050919050565b6000602082019050818103600083015261407181614035565b9050919050565b7f73616c65206973206e6f74206163746976650000000000000000000000000000600082015250565b60006140ae6012836133ee565b91506140b982614078565b602082019050919050565b600060208201905081810360008301526140dd816140a1565b9050919050565b60006140ef82613091565b91506140fa83613091565b9250827fffffffffffffffffffffffffffffffffffffffffffffffffffffffffffffffff0382111561412f5761412e613efa565b5b828201905092915050565b7f627579207175616e7469747920746f6f20686967680000000000000000000000600082015250565b60006141706015836133ee565b915061417b8261413a565b602082019050919050565b6000602082019050818103600083015261419f81614163565b9050919050565b7f6e6f7420656e6f7567682073746f636b20666f72207075726368617365000000600082015250565b60006141dc601d836133ee565b91506141e7826141a6565b602082019050919050565b6000602082019050818103600083015261420b816141cf565b9050919050565b7f6e6f7420656e6f7567682062616c616e63650000000000000000000000000000600082015250565b60006142486012836133ee565b915061425382614212565b602082019050919050565b600060208201905081810360008301526142778161423b565b9050919050565b600061428982613091565b915061429483613091565b9250817fffffffffffffffffffffffffffffffffffffffffffffffffffffffffffffffff04831182151516156142cd576142cc613efa565b5b828202905092915050565b60006040820190506142ed600083018561309b565b6142fa602083018461309b565b9392505050565b60008151905061431081613025565b92915050565b6000806040838503121561432d5761432c612fe9565b5b600061433b85828601614301565b925050602061434c858286016139c1565b9150509250929050565b7f6d73672e76616c7565202b2062616c616e636520213d20707269636500000000600082015250565b600061438c601c836133ee565b915061439782614356565b602082019050919050565b600060208201905081810360008301526143bb8161437f565b9050919050565b60006080820190506143d7600083018761309b565b6143e460208301866133b9565b6143f160408301856133b9565b6143fe606083018461309b565b95945050505050565b7f4f776e61626c653a2063616c6c6572206973206e6f7420746865206f776e6572600082015250565b600061443d6020836133ee565b915061444882614407565b602082019050919050565b6000602082019050818103600083015261446c81614430565b9050919050565b7f73616c6520646f6573206e6f7420657869737400000000000000000000000000600082015250565b60006144a96013836133ee565b91506144b482614473565b602082019050919050565b600060208201905081810360008301526144d88161449c565b9050919050565b7f6f6e6c79206f776e6572206f722073616c652063726561746f72000000000000600082015250565b6000614515601a836133ee565b9150614520826144df565b602082019050919050565b6000602082019050818103600083015261454481614508565b9050919050565b7f6d75737420626520616374697665206f722070656e64696e6700000000000000600082015250565b60006145816019836133ee565b915061458c8261454b565b602082019050919050565b600060208201905081810360008301526145b081614574565b9050919050565b7f6572726f72000000000000000000000000000000000000000000000000000000600082015250565b60006145ed6005836133ee565b91506145f8826145b7565b602082019050919050565b6000602082019050818103600083015261461c816145e0565b9050919050565b7f4f776e61626c653a206e6577206f776e657220697320746865207a65726f206160008201527f6464726573730000000000000000000000000000000000000000000000000000602082015250565b600061467f6026836133ee565b915061468a82614623565b604082019050919050565b600060208201905081810360008301526146ae81614672565b9050919050565b60006060820190506146ca60008301866133b9565b6146d760208301856133b9565b6146e4604083018461309b565b949350505050565b7f5361666545524332303a204552433230206f7065726174696f6e20646964206e60008201527f6f74207375636365656400000000000000000000000000000000000000000000602082015250565b6000614748602a836133ee565b9150614753826146ec565b604082019050919050565b600060208201905081810360008301526147778161473b565b9050919050565b7f416464726573733a20696e73756666696369656e742062616c616e636520666f60008201527f722063616c6c0000000000000000000000000000000000000000000000000000602082015250565b60006147da6026836133ee565b91506147e58261477e565b604082019050919050565b60006020820190508181036000830152614809816147cd565b9050919050565b7f416464726573733a2063616c6c20746f206e6f6e2d636f6e7472616374000000600082015250565b6000614846601d836133ee565b915061485182614810565b602082019050919050565b6000602082019050818103600083015261487581614839565b9050919050565b600081519050919050565b60006148928261487c565b61489c8185613fc9565b93506148ac8185602086016133ff565b80840191505092915050565b60006148c48284614887565b91508190509291505056fea2646970667358221220f872f1055ddc0f0797cc3e376d8b9fe5ac2cba4748c7c919ab28f34082ca95da64736f6c634300080a0033",
  "linkReferences": {},
  "deployedLinkReferences": {}
}